:020000040800F2
:10000000301300205D2E0008610700086307000818
:10001000670700086B0700086F0700080000000072
:10002000000000000000000000000000730700084E
:10003000750700080000000077070008790700082E
:10004000772E0008772E0008772E0008772E0008FC
:10005000772E0008772E0008772E0008772E0008EC
:10006000772E0008772E0008772E0008772E0008DC
:10007000772E0008772E0008772E0008772E0008CC
:10008000772E0008772E0008772E0008772E0008BC
:10009000772E0008772E0008772E0008772E0008AC
:1000A000772E0008772E0008772E0008772E00089C
:1000B000772E0008772E0008A1550008772E00083B
:1000C000772E0008772E0008772E0008772E00087C
:1000D000772E0008D32D0008772E0008A9240008E9
:1000E000772E0008772E0008772E0008772E00085C
:1000F000772E0008772E0008772E0008772E00084C
:10010000772E0008772E0008772E0008772E00083B
:10011000772E0008772E0008772E0008891B00082C
:10012000772E0008772E0008772E0008772E00081B
:10013000772E0008772E0008772E0008772E00080B
:10014000772E0008772E0008772E0008772E0008FB
:10015000772E0008772E0008772E0008772E0008EB
:10016000772E0008772E0008772E0008772E0008DB
:10017000772E0008772E0008772E0008772E0008CB
:10018000772E0008772E000800F002F800F0B2F891
:100190000AA090E8000C82448344AAF10107DA45E2
:1001A00001D100F0A7F8AFF2090EBAE80F0013F082
:1001B000010F18BFFB1A43F00103184778AC000089
:1001C00098AC00000A444FF0000C10F8013B13F00B
:1001D000070408BF10F8014B1D1108BF10F8015BA0
:1001E000641E05D010F8016B641E01F8016BF9D193
:1001F00013F0080F1EBF10F8014BAD1C0C1B09D1EA
:100200006D1E58BF01F801CBFAD505E014F8016B5B
:1002100001F8016B6D1EF9D59142D6D370470000ED
:100220000023002400250026103A28BF78C1FBD8FF
:10023000520728BF30C148BF0B6070476E2906F0D7
:10024000DF81702906F02180662909F03280652956
:1002500009F02F80672909F02C806129AFF3008015
:1002600003681B0A28BF41F08001692905F09287C5
:10027000642905F08F87752905F08C876F2906F0B2
:10028000E684782905F0ED87E92906F08184E429E0
:1002900006F07E84F52906F07B84EF2906F0E384DE
:1002A000F82905F0EC870368DB0928BF41F08001DD
:1002B000632906F0F083732906F0F583E32906F03D
:1002C0007585F32906F07A85002070471FB508F080
:1002D000E6FF06F0D3FC04000020002108F07CF9C2
:1002E000401C60600020002108F060F9E0601FBD44
:1002F00010B510BD06F000FE1146FFF7E7FF00F055
:1003000025F906F027FE03B4FFF7F2FF03BC02F065
:1003100001FD000010B52DED048B82B01F2000F010
:100320008BFBD0490880D048D0F8490000EE100A75
:10033000B8EE400AB0EE408A9FEDCC0AC8EE000A43
:10034000B0EE608A10EE904A204608F037FF41EC8C
:10035000190BC54890F84D0053EC192BC4A100901F
:10036000C94805F0B1FEC84810210B46C822CDE9A6
:10037000001082211E2001F000FABB48406C00EE04
:10038000100AB8EE400AB0EE408A9FEDB80AC8EEF7
:10039000000AB0EE608A10EE904A204608F00EFF88
:1003A00041EC190BB04890F8480053EC192BB7A159
:1003B0000090B54805F088FEB34810210B46C822CE
:1003C000CDE9001096211E2001F0D7F9A648D0F8FB
:1003D000630000EE100AB8EEC00AB0EE408AB2EE3A
:1003E000040AC8EE000AB0EE608A10EE904A204679
:1003F00008F0E4FE41EC190B53EC192BA9A1A2481B
:1004000005F062FEA04810210B46C822CDE900107D
:10041000AA211E2001F0B1F99348B0F8670000EE60
:10042000100AB8EE400AB0EE408A9FEDA30AC8EE6B
:10043000000AB0EE608A10EE904A204608F0BEFE38
:1004400041EC190B53EC192B9CA18F4805F03CFE95
:100450008D4810210B46C822CDE90010BE211E2078
:1004600001F08BF9804890F85C00032813DC7E488B
:1004700090F85C00964951F8202096A1824805F03A
:1004800023FE814810210B46C822CDE90010D2215D
:100490001E2001F072F9744890F84F2090A17A481C
:1004A00005F012FE784810210B46C822CDE9001055
:1004B000E6211E2001F061F96B480078642190FB71
:1004C000F1F201FB120422468BA16F4805F0FCFDFE
:1004D0006D4810210B46C822CDE90010FA211E20DC
:1004E00001F04BF9604890F8400000905E4890F8A9
:1004F0003F30B0F83D2086A1634805F0E5FD624835
:1005000010210B46C822CDE900104FF487711E2040
:1005100001F033F9544890F843000090524890F8A5
:10052000423090F8412081A1574805F0CDFD564852
:1005300010210B46C822CDE900104FF491711E2006
:1005400001F01BF902B0BDEC048B10BD1CB500BF5F
:1005500000BF4FF4A06002F0A1FCA82002F058FBFD
:100560004FF4E13002F0E3FB4FF4165001F0CBFF03
:10057000754841685420884700F008FA01F05EFA97
:1005800002F052F802F050FA00F02EFC6E4841687A
:10059000482088474FF4784000F04EFA31490880EF
:1005A0006AA010210B46C822CDE9001014211E209C
:1005B00001F0E3F802F09BF852E0012002F08AFB20
:1005C0004FF4FA7094FBF0F100FB1140002845D184
:1005D0006148006808B9012000E000205E49086019
:1005E00002F064FA102000905C48B0F90020052366
:1005F0004FF482711E2001F007F810200090574838
:10060000B0F9022005234FF48C711E2000F0FCFF8E
:10061000102000905148B0F9042005234FF4967142
:100620001E2000F0F1FF002000904C48C27D1023F6
:10063000C8211E2000F055FF002000904748027E90
:100640001023C821502000F04CFF002000904348A8
:10065000427E1023C8218C2000F043FF601C84B22E
:10066000ABE7000024000020B00400200050C34786
:100670004C6F6E6769747564653A252E3566202562
:1006800031632020200000001C0500204C617469AB
:10069000747564653A252E35662025316320202047
:1006A00000000000416C7469747564653A252E3150
:1006B000666D20202020200000007A44537065657C
:1006C000643A252E33666B6D2F6820202020200091
:1006D00000000020466978204D6F64653A2573005C
:1006E00056616C696420736174656C6C6974653AF9
:1006F000253032640000000056697369626C652021
:10070000736174656C6C6974653A253032640000FD
:1007100055544320446174653A253034642F2530A4
:1007200032642F25303264202020000055544320AD
:1007300054696D653A253032643A253032643A2581
:1007400030326420202000009C0000204B455920BE
:10075000544553542E2E2E00A4824242EC0B00200E
:10076000704700BFFEE700BFFEE700BFFEE700BF27
:10077000FEE7704770477047704700000CB50020D7
:10078000019000907648006840F480307449086019
:1007900000BF7348006800F4003000900198401CCE
:1007A0000190009818B90198B0F5A04FF1D16C48AC
:1007B000006800F4003010B10120009001E000203A
:1007C00000900098012846D165484030006840F00C
:1007D00080506349403108606248006840F44040FE
:1007E000604908605E48083000685D49083108606B
:1007F0000846006840F4004008600846006840F47D
:10080000A05008605848091F0860081F006840F0A1
:100810008070091F086000BF5148006800F0007038
:100820000028F9D040F20570504908604C48083063
:10083000006820F003004A49083108600846006853
:1008400040F00200086000BF45480830006800F032
:100850000C000828F8D10CBD10B54548006840F4DC
:100860007000434908603E48006840F001003C4980
:10087000086000203A4908310860394800683D495D
:100880000840374908603C48091D0860081F006897
:1008900020F48020091F0860002031490C310860D5
:1008A000FFF76CFF4FF0006031498039086010BDE0
:1008B00070B500200022022300240221284D0835B3
:1008C0002D6805F00C0020B1042806D0082834D18A
:1008D00007E02A4D2A4E356033E02A4D284E356018
:1008E0002FE01F4D2D1D2D68C5F380541C4D2D1D6F
:1008F0002D6805F03F0154B1224DB5FBF1F5184EBE
:10090000361D3668C6F3881605FB06F209E01B4D56
:10091000B5FBF1F5124E361D3668C6F3881605FB99
:1009200006F20F4D2D1D2D68C5F301456D1C6B00A2
:10093000B2FBF3F5124E356003E0104D104E3560FA
:1009400000BF00BF064D08352D68C5F303150E4ED8
:10095000705D0B4D2D68C540094E356070BD0000BF
:10096000003802400070004008544007003C02403C
:1009700088ED00E0FFFFF6FE103000240024F400B4
:100980001000002000127A00140000201CB5012184
:10099000202003F0FBF84FF4C060009001208DF898
:1009A000040000208DF8060003208DF805000120CA
:1009B0008DF807006946044802F04AFE4FF4C06112
:1009C000014802F0C1FE1CBD0014024001B5BDF893
:1009D00000000090BDF80000FA49088008BD01B58C
:1009E000BDF800000090BDF80000F649891C0880A1
:1009F00008BD08B5F348801C00880090BDF80000D1
:100A000008BDF04A10804FF0D842A2F8801070471D
:100A100010B504462046FFF7D9FF052002F012F971
:100A2000FFF7E7FF10BDE8480089E64908807047F6
:100A3000E449891C0880704730B5014601F01F0465
:100A4000C1F34513CA0AE50205EB43151544A8B2E4
:100A500030BD00BF011EA0F10102D0B2FAD1704733
:100A600010B502460C46D8494889FFF7AFFF082A5F
:100A700001DD012100E000210846FFF7B0FFD0B200
:100A8000FFF7ADFFD0498889FFF7A0FF2012FFF7DD
:100A9000A6FFE0B2FFF7A3FF10BD2DE9F041044629
:100AA0000D4600260027B046C7480088A04203DD57
:100AB000C5484088A84202DC0020BDE8F0812946F4
:100AC0002046FFF7CDFF2E20FFF780FFFFF791FFB5
:100AD0008046F7B24FF6FF7000EA07273046ECE792
:100AE00000B52920FFF772FF00BD00B52820FFF7F1
:100AF0006DFF00BD70B5054600240026082D1CD2F0
:100B0000DFE805F00406090C0F12151800BF14E009
:100B100044F0800411E044F040040EE044F0C004CE
:100B20000BE044F0200408E044F0600405E044F0E9
:100B3000A00402E044F0E00400BF00BF3626A24952
:100B40004889FFF743FF0020FFF749FF0020FFF728
:100B500046FF9D490988491EC1F30F20FFF73FFF5B
:100B600099490978491EC8B2FFF739FF9649888923
:100B7000FFF72CFF0020FFF732FF0020FFF72FFFC9
:100B800091494988491EC1F30F20FFF728FF8E497C
:100B90008978491EC8B2FFF722FF44F480542146E9
:100BA0003046FFF72EFF70BD30B504460D4629468E
:100BB0002046FFF755FF2C20FFF708FFFFF733FF14
:100BC000824800887F49891C088030BD30B50446C2
:100BD0000D467D494889FFF7F9FE2012FFF7FFFE19
:100BE000E0B2FFF7FCFE2012FFF7F9FEE0B2FFF7DC
:100BF000F6FE75498889FFF7E9FE2812FFF7EFFE38
:100C0000E8B2FFF7ECFE2812FFF7E9FEE8B2FFF7C3
:100C1000E6FE6D4800896B4908804FF0D840A0F887
:100C2000802030BD70B52DED048B0446BE20FFF74B
:100C3000CDFE0520FFF7D3FE204607F079FF41ECFB
:100C4000190B9FED630B53EC102B07F0C1FF41EC28
:100C5000180B07F029FF85B22846FFF7C0FE0120D8
:100C6000FFF7BDFEFF20FFF7BAFE0020FFF7B7FE3B
:100C70000020FFF7B4FEBDEC048B70BD10B5044638
:100C80002C20514908812A2048812B2088814FF44B
:100C9000A07008804FF4F07048800020FFF72AFF12
:100CA00010BD2DE9F04F86B004460D4616461F468E
:100CB000A019401E1FFA80F8E819401E1FFA80F99B
:100CC00041494889FFF782FE2012FFF788FEE0B213
:100CD000FFF785FE4FEA2820FFF781FE08F0FF00AE
:100CE000FFF77DFE38498889FFF770FE2812FFF76D
:100CF00076FEE8B2FFF773FE4FEA2920FFF76FFE9A
:100D000009F0FF00FFF76BFE4FF0500A4FF0510B58
:100D1000522005905320049050460399FFF771FE2E
:100D200058460299FFF76DFE01990598FFF769FE95
:100D300000990498FFF765FE29462046FFF790FECC
:100D40004FF4A070204908804FF4F070488006B03E
:100D5000BDE8F08F2DE9F04107464FF000081A4832
:100D60004388028800210846FFF79BFF2C20FFF7ED
:100D70002DFE154840881449098800FB01F5EE084E
:100D8000082000FB1655002418E03846FFF727FE20
:100D90003846FFF724FE3846FFF721FE3846FFF7B6
:100DA0001EFE3846FFF71BFE3846FFF718FE384692
:100DB000FFF715FE3846FFF712FE641CB442E4D379
:100DC00000240DE07E00006C4E0500202400002071
:100DD00066666666666604403846FFF700FE641C79
:100DE000AC42F9D3BDE8F08110B5A0B000201F904F
:100DF00001217A2002F0CAFE0121084602F0FEFE1F
:100E00004FF400401D9001208DF8780000208DF8EF
:100E10007A0002208DF8790001208DF87B001DA951
:100E2000FE4802F015FC4CF233701D9002208DF844
:100E3000780000208DF87A0003208DF879000120D9
:100E40008DF87B001DA9F64802F002FC4FF6807079
:100E50001D9002208DF8780000208DF87A00032084
:100E60008DF8790001208DF87B001DA9ED4802F076
:100E7000EFFB4FF480501D9002208DF87800002089
:100E80008DF87A0003208DF8790001208DF87B0021
:100E90001DA9E54802F0DCFB4FF480501D900220B4
:100EA0008DF8780000208DF87A0003208DF8790005
:100EB00001208DF87B001DA9DC4802F0C9FB0C2243
:100EC0000021D74802F04FFC0C220121D44802F047
:100ED0004AFC0C220421D24802F045FC0C220521D8
:100EE000CF4802F040FC0C220821CD4802F03BFC28
:100EF0000C220921CA4802F036FC0C220A21C848FB
:100F000002F031FC0C220E21C54802F02CFC0C2210
:100F10000F21C34802F027FC0C220721C14802F030
:100F200022FC0C220821BF4802F01DFC0C220921E2
:100F3000BC4802F018FC0C220A21BA4802F013FC4B
:100F40000C220B21B74802F00EFC0C221146B548CA
:100F500002F009FC0C220D21B24802F004FC0C2224
:100F60000E21B04802F0FFFB0C220F21AD4802F029
:100F7000FAFB0C221146AC4802F0F5FB0C2211469C
:100F8000AA4802F0F0FB0F200790002008903C20B8
:100F9000099000200A900B900C900D900920009071
:100FA00000200190082002900020039004900590FA
:100FB000069006200E9000200F90109010201190A7
:100FC0000020129014901390159016904FF48050BA
:100FD0001790002018904FF48040199000201A902C
:100FE00007A81B90CDF870D00EA801F0E2FF0121F8
:100FF000062002F069F8322001F06CFE0121002089
:10100000FFF7FFFC322001F065FE0020FFF700FD36
:1010100087498880D320FFF7D9FCFFF7EAFC844991
:101020008880FFF7E6FC82498880FFF7E2FC804970
:101030008880084680884FF6FF7101EA00207C49CD
:101040008880FFF7D6FC7A498988084378498880E8
:101050000846808849F2884188421CD1754800685A
:1010600020F00F004FF02041C1F81C010846D0F8D5
:101070001C0120F47060C1F81C010846D0F81C0166
:1010800040F00300C1F81C010846D0F81C0140F4F0
:101090000070C1F81C016648818867A005F008F857
:1010A0006348808849F2884188427CD1E020FFF77C
:1010B0008DFC0020FFF793FC0720FFF790FC102029
:1010C000FFF78DFC0920FFF78AFC1720FFF787FC4C
:1010D0000B20FFF784FC4120FFF781FC8920FFF7FC
:1010E0007EFC4B20FFF77BFC0A20FFF778FC0C20EE
:1010F000FFF775FC0E20FFF772FC1820FFF76FFC5E
:101100001B20FFF76CFC0F20FFF769FCE120FFF7C5
:101110005DFC0020FFF763FC1720FFF760FC1A203E
:10112000FFF75DFC0420FFF75AFC0E20FFF757FC89
:101130000620FFF754FC2F20FFF751FC4520FFF756
:101140004EFC4320FFF74BFC0220FFF748FC0A202F
:10115000FFF745FC0920FFF742FC3220FFF73FFC78
:101160003620FFF73CFC0F20FFF739FCC020FFF7CB
:101170002DFC1120FFF733FC0920FFF730FCC120C4
:10118000FFF724FC4120FFF72AFCC520FFF71EFCD7
:101190000020FFF724FC0A20FFF721FC8020FFF746
:1011A0001EFC362000E06CE0FFF710FC0820FFF783
:1011B00016FC3A20FFF70AFC5520FFF710FCB02080
:1011C000FFF704FC0020FFF70AFCB120FFF7FEFB4D
:1011D000B020FFF704FC1120FFF701FCB420FFF75B
:1011E000F5FB0220FFF7FBFBB620FFF7EFFB022029
:1011F000FFF7F5FB2220FFF7F2FBB720FFF7E6FB36
:10120000C620FFF7ECFBBE20FFF7E0FB0020FFF756
:10121000E6FB0420FFF7E3FBE92015E000040240B1
:10122000000C02400010024000140240001802406E
:101230004E0500201C0100A0204C43442049443AA4
:1012400025780D0A00000000FFF7C0FB0020FFF723
:10125000C6FBF720FFF7BAFBA920FFF7C0FB512020
:10126000FFF7BDFB2C20FFF7BAFB8220FFF7B7FB8F
:101270001120FFF7ABFB782001F02CFD2920FFF7B0
:10128000A5FB0020FFF7FAFC0120F74908604FF6A4
:10129000FF70FFF7D1FB0446FFF75CFD20B010BDE7
:1012A0002DE9F04F05460E4617469846DDF824A076
:1012B0004FF0000B781B401C1FFA80FB344617E0F0
:1012C00021462846FFF7CCFB2C20FFF77FFBFFF7DA
:1012D000AAFB4FF0000907E04FF0D840A0F880A02B
:1012E00009F101001FFA80F9D945F5DB601C84B2D1
:1012F0004445E5DDBDE8F08F2DE9F84F07460D4682
:1013000090469946DDF828B0A8EB0700401C1FFA6C
:1013100080FAA9EB0500401C80B20090002417E081
:10132000281981B23846FFF79BFB2C20FFF74EFBB4
:10133000FFF779FB002607E004FB0A603BF810008A
:10134000CA490880701C86B25645F5DB601C84B221
:1013500000988442E4DBBDE8F88F2DE9FF4F84B0AC
:1013600081468A460020039002900698A0EB09056A
:101370000798A0EB0A06CDF80490CDF800A0002D48
:1013800001DD012705E00DB9002702E04FF0FF372E
:101390006D42002E02DD4FF0010806E016B94FF055
:1013A000000802E04FF0FF387642B54201DD2C46DE
:1013B00000E034464FF0000B23E0009A91B2019A0E
:1013C00090B2AB4A1288FFF701FC039828440390BF
:1013D0000298304402900398A04205DD0398001B58
:1013E00003900198384401900298A04205DD0298CC
:1013F000001B02900098404400900BF101001FFA7E
:1014000080FB601C8345D8DD08B0BDE8F08FF0B5E7
:1014100004460D4616461F462B46324629462046B0
:10142000FFF79BFF3B46224629462046FFF795FFE4
:101430003B46324639462046FFF78FFF3B46324651
:1014400029463046FFF789FFF0BD2DE9F0430646F7
:101450000F469046002445460320A0EB48093CE097
:101460007A1B91B2321990B2FFF79EFB3A1B91B2F0
:10147000721990B2FFF798FB3A1991B2721990B2B3
:10148000FFF792FB7A1991B2321990B2FFF78CFBF9
:101490007A1991B2321B90B2FFF786FB3A1991B2DA
:1014A000721B90B2FFF780FB7A1B91B2321B90B295
:1014B000FFF77AFB3A1B91B2721B90B2FFF774FBF5
:1014C000641CB9F1000F03DAA000801D814404E020
:1014D000601B80000A3081446D1EAC42C0DDBDE857
:1014E000F0832DE9F84F80460E4617461C46B3465A
:1014F0002046E31704EB5373DB1021464FEAE47CEC
:1015000004EB5C7C4FEAEC0CA4EBCC0CBCF1000FC0
:1015100002D04FF0010C01E04FF0000C6344224672
:1015200004EBD27C4FEA6C0C03FB0CF3DBB20093B0
:10153000A7F12000C7B2002556E00C2C07D107EB1D
:1015400047004C4901EB800010F8059013E0102C87
:1015500005D1494800EB071010F805900BE0182C56
:1015600007D107EBC700454901EB800010F8059053
:1015700001E0BDE8F88F4FF0000A2FE009F080008D
:1015800030B13B48028831464046FFF71FFB07E079
:101590000A9828B93A48028831464046FFF716FBB8
:1015A0004FEA49604FEA1069701C86B2354840889E
:1015B000B04200DCDDE7A6EB0B00A0420AD15E469C
:1015C00008F101001FFA80F82E480088404500DC31
:1015D000CFE706E00AF1010000F0FF0ABAF1080FB8
:1015E000CCDB00BF681CC5B200988542A5DB00BFFC
:1015F000BFE710B50246012000E050430B1EA1F1E9
:101600000104E1B2F9D110BD2DE9FF4F81B00746C9
:1016100091461E460E9D4FF0000A002449E0301B03
:10162000401EC1B20A20FFF7E4FFB9FBF0F00A2127
:10163000B0FBF1F201FB1208BAF1000F26D1701EC7
:10164000A04223DDB8F1000F1ED10020AB4605EB10
:10165000DB71491001FB0471009088B22B462022F7
:101660000299FFF73EFF22E0BC8240428000006CFE
:1016700024000020A69300081A9800080A9E00087B
:10168000260000204E0500204FF0010A0020AB4646
:1016900005EBDB71491001FB0471009088B208F181
:1016A0003001CAB22B460299FFF71BFF00BF601C36
:1016B000C4B2B442B3DB05B0BDE8F08F2DE9FF4FF3
:1016C00082B0064692461F46DDE90F480020019091
:1016D00000254DE0781B401EC1B20A20FFF789FFAC
:1016E000BAFBF0F00A21B0FBF1F201FB12090198FC
:1016F00050BB781EA84227DDB9F1000F22D108F0B7
:10170000800078B108F00100A34604EBDB714910BA
:1017100001FB0561009088B2234630220399FFF750
:10172000E0FE0EE008F00100A34604EBDB71491077
:1017300001FB0561009088B2234620220399FFF740
:10174000D0FE13E00120019008F00100A34604EB55
:10175000DB71491001FB0561009088B209F130018D
:10176000CAB223460399FFF7BCFE00BF681CC5B28E
:10177000BD42AFDB06B0BDE8F08F2DE9F847044667
:101780000D4690469946DDE9096704F0FF0A08EB2B
:1017900004001FFA80F809EB05001FFA80F916E033
:1017A000444502DB5446A81985B24D4500DB14E0E0
:1017B000002000903A78334629462046FFF791FEF4
:1017C000304606EBD07104EB61018CB27F1C387897
:1017D0007E2802DC38782028E2DA00BFBDE8F887EE
:1017E0001CB50121022002F0D1F94FF440700090A5
:1017F00001208DF8040003208DF8050000208DF8ED
:10180000060001208DF807006946894801F020FF95
:101810000120884908608849C1F8A4021CBD10B5A0
:101820008348006820F44020814908600846006829
:1018300040F48020086001207E49091D08607E492F
:10184000C1F8A002042001F0FDF900207949091D2A
:101850000860042001F0F6F900207749C1F8A002E1
:1018600010BD10B57248006820F44020704908602F
:101870000846006840F48020086000206D49086038
:101880006D49C1F8A402042001F0DCF90120694986
:1018900008606949C1F8A402042001F0D3F910BD21
:1018A00010B500246248006820F4402060490860B8
:1018B00008460068086001205E49091D086001F0C3
:1018C000C1F901205C49C1F8A00201F0BBF907E0B1
:1018D000601CC4B2FA2C03DDFFF7C3FF012010BD6A
:1018E00054487C3800680028F2D15249086000BF93
:1018F000F5E710B500204F4908604D48006820F416
:1019000040204B4908600846006840F48020086089
:1019100000204949C1F8A402022001F093F90120F6
:1019200044490860022001F08DF900204249C1F8C5
:10193000A00210BD10B500203E4908603C48006878
:1019400020F440203A4908600846006840F48020AE
:10195000086001203849C1F8A402022001F072F9A0
:10196000012034490860022001F06CF9002032495E
:10197000C1F8A00210BD70B504462D48006820F4DF
:1019800040202B4908600846006840F48020086029
:10199000002028490860002517E0E0092549091DB5
:1019A00008606006040E022001F04CF90120224973
:1019B000C1F8A002022001F045F900201D4908608D
:1019C000022001F03FF9681CC5B2082DE5DB70BDAF
:1019D00070B5054600241648006820F440201449DC
:1019E0000860084600680860002616E000201149DB
:1019F0000860022001F026F901200F49C1F8A00279
:101A00006006040E0B487C38006808B1601CC4B244
:101A1000012001F017F9701CC6B2082EE6DB15B9DB
:101A2000FFF788FF01E0FFF764FF204670BD00006C
:101A300000040240A0824042008040421CB50121C7
:101A4000152002F0A3F81C20009000208DF804005F
:101A500001208DF807000E20009000208DF8040072
:101A600001208DF807006946414801F0F1FD012091
:101A7000009002208DF8070069463E4801F0E8FD1D
:101A80001CBD10B5044614B101203B4908703A480A
:101A90000078002847D039480068B0B13748001FA7
:101AA000006890B135480838006870B13448006863
:101AB00058B13348001F006838B131480838006811
:101AC00018B13048006801282DD10A2001F002F930
:101AD0000020294908702948006808B9012010BD74
:101AE0002648001F006808B90220F8E72348083894
:101AF000006808B90320F2E72148006808B904200B
:101B0000EDE71F48001F006808B90520E7E71C48FB
:101B10000838006808B90620E1E71A48006801287B
:101B200023D10720DBE71548006801281DD11348A1
:101B3000001F0068012818D11048083800680128E3
:101B400013D10F48006801280FD10D48001F00680D
:101B500001280AD10A4808380068012805D1094837
:101B6000006810B90120044908700020B7E70000A0
:101B700000080240000002402800002010024242FB
:101B80000C0241420002404210B501211F4802F000
:101B9000B6FE68B11E48008840F400401C49088029
:101BA00001211A4802F0BCFE0021184802F078FA20
:101BB00010BD7FB505460C460121202002F02FF80C
:101BC0000195ADF800400020ADF80800ADF8020026
:101BD00069460E4802F0DBF9012211460B4802F07B
:101BE00077FE0121094802F05BFA37208DF80C00DE
:101BF00000208DF80D0002208DF80E0001208DF8D8
:101C00000F0003A801F04FF97FBD00000014004051
:101C10002A0000200246134610E010782A2805D03A
:101C20001078202802DB10787A2801DDFF20704729
:101C300010782C2801D1481EC1B2521C0029ECD1C9
:101C4000D01AC0B2F3E710B50246012000E05043BD
:101C50000B1EA1F10104E1B2F9D110BD2DE9F34F42
:101C600081B007463C46002000908346814600260E
:101C7000804628E020782D2802D148F00208641C14
:101C800020782C2802D020782A2800D11CE0207847
:101C90002E2803D148F00108641C09E02078392877
:101CA00002DC2078302803DA4FF0000900260BE030
:101CB00008F0010010B1701CC6B203E009F1010088
:101CC00000F0FF09641CD5E700BF08F0020000B176
:101CD0007F1C00250EE0A9F10100401BC1B20A20C3
:101CE000FFF7B1FF795D3039009A00FB01200090C9
:101CF000681CC5B24D45EEDB052E00DD05260298B9
:101D0000067000250EE0701E401BC1B20A20FFF7CE
:101D10009AFF09F101012944795C303900FB01BBCC
:101D2000681CC5B2B542EEDB31460A20FFF78BFFD7
:101D3000009901FB00BA08F0020008B1CAF1000ADC
:101D40005046BDE8FE8F2DE9FC5F07468A464FF0FE
:101D50000008CDF804A0FEA1019804F065FB06463A
:101D6000F079303800F0FF0B03213046FFF752FFC7
:101D70000546FF2D04D070196946FFF76FFF3870D4
:101D80004FF000096CE0F2A1019804F04DFB06460B
:101D900000245CE0042000EB8400C1B23046FFF771
:101DA00039FF0546FF2D09D070196946FFF756FF28
:101DB000C1B208EB8802781C815400E049E005209C
:101DC00000EB8400C1B23046FFF724FF0546FF2D2B
:101DD0000AD070196946FFF741FFC1B208EB8802CB
:101DE000781C1044417000E033E0062000EB8400D2
:101DF000C1B23046FFF70EFF0546FF2D0AD070191D
:101E00006946FFF72BFF81B208EB8802781C10446B
:101E1000418000E01DE0072000EB8400C1B23046A5
:101E2000FFF7F8FE0546FF2D0AD070196946FFF747
:101E300015FFC1B208EB8802781C1044017100E064
:101E400007E008F1010000F0FF08601CC4B2042C98
:101E5000A0DB00BF701C019009F1010000F0FF0938
:101E6000D94590DBBDE8FC9FF8B505460F46BAA101
:101E7000384604F0D9FA064606213046FFF7CAFE76
:101E80000446FF2C05D030196946FFF7E7FE85F8B8
:101E90004E0007213046FFF7BDFE0446FF2C05D05B
:101EA00030196946FFF7DAFE85F84F000921304600
:101EB000FFF7B0FE0446FF2C05D030196946FFF746
:101EC000CDFEC5F86300F8BD2DE9F8430546884608
:101ED000A3A1404604F0A8FA064602213046FFF7C7
:101EE00099FE0446FF2C05D030196946FFF7B6FE6F
:101EF00085F85C00002713E0F81CC1B23046FFF7FC
:101F000089FE0446FF2C08D030196946FFF7A6FE6B
:101F1000C1B205F15000C15500E003E0781CC7B222
:101F20000C2FE9DB00BF0F213046FFF773FE04469C
:101F3000FF2C05D030196946FFF790FEA5F85D002B
:101F400010213046FFF766FE0446FF2C05D03019FD
:101F50006946FFF783FEA5F85F0011213046FFF7C1
:101F600059FE0446FF2C05D030196946FFF776FE6E
:101F7000A5F86100BDE8F8832DE9F0432DED028B53
:101F800081B00446884678A1404604F04DFA0746E1
:101F900001213846FFF73EFE0546FF2D23D0781974
:101FA0006946FFF75BFE81469DF800100A20FFF7A7
:101FB0004AFEB9FBF0F642F21070B6FBF0F0C1B287
:101FC000412001556420B6FBF0F06421B0FBF1F232
:101FD00001FB1201422001556420B6FBF0F100FB29
:101FE00011614320015503213846FFF713FE0546D2
:101FF000FF2D40D078196946FFF730FE06469DF860
:102000000000801CC1B20A20FFF71DFEB6FBF0F0F5
:1020100060649DF80000801CC1B20A20FFF713FE27
:10202000B6FBF0F100FB116000EE100AB8EE408A3A
:1020300005210A20FFF707FE616C484300EE100AF5
:10204000F8EE400A9DF80000C0F10500C1B20A2078
:10205000FFF7F9FD00EE100AB8EE400A20EE080A7C
:102060009FED431AC0EE011A30EEA10ABCEEC00A81
:1020700010EE100A606404213846FFF7CBFD0546D8
:10208000FF2D02D0785D84F8480005213846FFF71F
:10209000C1FD0546FF2D44D078196946FFF7DEFDE6
:1020A00006469DF80000801CC1B20A20FFF7CBFD58
:1020B000B6FBF0F044F8490F9DF80000801CC1B257
:1020C0000A20FFF7C0FDB6FBF0F100FB116000EE47
:1020D000100AB8EE400AB0EE408A05210A20FFF748
:1020E000B2FD2168484300EE100AF8EE400A9DF860
:1020F0000000C0F10500C1B20A20FFF7A4FD00EE08
:10210000100AB8EE400A20EE080A9FED191AC0EE38
:10211000011A30EEA10ABCEEC00A10EE100A44F813
:10212000490906213846FFF775FD0546FF2D02D007
:10213000785D84F84D0009213846FFF76BFD0546B0
:10214000FF2D31D078196946FFF788FD064611E06A
:10215000244750475356000024475047474100004A
:1021600024475047534100004750524D4300000060
:102170000000704242F21070B6FBF0F0C1B2402095
:1021800001556420B6FBF0F06421B0FBF1F201FBD5
:1021900012013F2001556420B6FBF0F100FB1160F5
:1021A00000F5FA60A4F83D0001B0BDEC028BBDE87B
:1021B000F083F8B504460D46B5A1284604F034F97D
:1021C000064607213046FFF725FD0746FF2F16D0AC
:1021D000F0196946FFF742FDA4F867009DF800007A
:1021E00003280CDA9DF80000C0F10300C1B20A20F8
:1021F000FFF729FDB4F867104843A4F86700F8BD5D
:1022000070B504460D4629462046FFF79CFD294639
:102210002046FFF729FE29462046FFF755FE2946AE
:102220002046FFF7A9FE29462046FFF7C2FF70BDF2
:1022300070B50446002515701D70002009E0157862
:10224000265C354415701D78167835441D70451C84
:10225000A8B28842F3DB70BD70B50025002604E00B
:10226000681C85B2052000F035FD8B48008800F41D
:10227000004008B9642DF3DBFA2D1BDA864800888C
:10228000C0F30E05002406E08448005DB52800D1A7
:1022900003E0601C84B2AC42F6DB00BFAC4201D16B
:1022A000022608E07D49E01C085C08B9032602E02C
:1022B000002600E00126002077490880304670BDE6
:1022C00010B5024600200CE000BF754B1B8803F0E0
:1022D0004003002BF9D0135C714C241D2380431C58
:1022E00098B28842F0DB10BD70B56E4C46F2B52056
:1022F000208040F6061060800D20A0800020C4F8E9
:1023000006004FF6FF70C4F80A000020C4F80E0063
:102310000420A07404F114035A1E1121A01CFFF71D
:1023200087FF15212046FFF7CBFF002505E0FFF7CB
:1023300093FF00B903E0681CC5B2062DF7DB00BFB0
:10234000062D01D1012070BD0020FCE770B50546C7
:102350000E46544C46F2B52020804FF483706080C6
:102360000820A080F020A071E57101202072667223
:10237000A072E0722073607304F10F035A1E0C21E7
:10238000A01CFFF755FF10212046FFF799FFFFF72C
:1023900063FF70BD70B50546424C46F2B520208003
:1023A000062060801420A0800120A0710020E07130
:1023B00020814FF40D60C4F80A00C4F80E500720C5
:1023C0006082A0820020E082208304F11B035A1E59
:1023D0001821A01CFFF72CFF1C212046FFF770FFDF
:1023E000C82000F077FC284600F08DF8FFF734FF96
:1023F00070BD2DE9F04105460E461746294C46F2C0
:10240000B520208040F2067060801420A080C4F8BF
:102410000650C4F80A60A7730020E073207460744B
:102420004FF44D7060820020A082C4F8160004F1C1
:102430001B035A1E1821A01CFFF7FAFE1C21204680
:10244000FFF73EFFFFF708FFBDE8F08170B50546D6
:102450000E46144CC82D01DA012070BD46F2B5209D
:10246000208040F6060060800620A080E5800120E4
:102470002081668104F10D035A1E0A21A01CFFF77A
:10248000D7FE0E212046FFF71BFFFFF7E5FEE4E72E
:1024900024475056544700002A000020800800209E
:1024A000004800406005002010B540F22551584812
:1024B00002F0F2FCF8B1564802F02CFCC4B25548C8
:1024C000008800F40040B0B952480088B0F5487F59
:1024D00012DA0021504801F0A3FD4E48008818B9D7
:1024E00001214D4801F0DCFD4A490888411C494A58
:1024F00011804A490C5405E04648008840F40040E9
:102500004449088010BD10B588B00446012102205E
:1025100001F03CFB0121880401F081FB3C4802F002
:10252000DBFA07220B213E4801F01DF907220A21A0
:102530003B4801F018F94FF44060059002208DF8F7
:1025400018008DF8190000208DF81A0001208DF870
:102550001B0005A9324801F07BF801940020ADF87A
:102560000800ADF80A00ADF80C00ADF810000C2022
:10257000ADF80E0001A9264802F015FB0121244800
:1025800002F099FB012240F22551214802F049FC5A
:1025900027208DF81C0000208DF81D008DF81E00EE
:1025A00001208DF81F0007A800F07DFC42F2CF014A
:1025B0006320FFF7FEFA0020164908800021164824
:1025C00001F06EFD08B010BD0FB438B505A800903D
:1025D0001448009A049903F059FD00200090114816
:1025E00003F034FF85B200240DE000BF402108480D
:1025F00002F03CFC0028F9D00A48015D044802F0D2
:1026000085FB601C84B2AC42EFDB38BC5DF814FB88
:10261000004800402A0000200014004080080020EC
:10262000000402406005002010B5FFF7D9F810BD86
:1026300070B504460025FFF7F2F8EE20FFF79BF98E
:10264000FFF72EF92046FFF796F9FFF729F9FFF774
:10265000E6F8EF20FFF78FF9FFF722F90120FFF7E7
:10266000B7F90546FFF7FDF8284670BD2DE9F041A2
:1026700005460026FFF7D3F8EE20FFF77CF9FFF7B9
:102680000FF92846FFF777F9FFF70AF9FFF7C7F8C0
:10269000EF20FFF770F9FFF703F90120FFF798F932
:1026A00004460020FFF794F90746FFF7DAF807EB36
:1026B000042006B23046BDE8F08170B505460C46F0
:1026C000FFF7ADF8EE20FFF756F9FFF7E9F82846D7
:1026D000FFF751F9FFF7E4F82046FFF74CF9FFF751
:1026E000DFF8FFF7BEF80A2000F0F4FA70BD10B56D
:1026F000AA20FFF7BBFFA7494880AC20FFF7B6FF31
:10270000A4498880AE20FFF7B1FFA249C880B0205D
:10271000FFF7ACFF9F490881B220FFF7A7FF9D4953
:102720004881B420FFF7A2FF9A498881B620FFF7BD
:102730009DFF9849C881B820FFF798FF9549088206
:10274000BA20FFF793FF93494882BC20FFF78EFF22
:1027500090498882BE20FFF789FF8E49C88210BD4C
:1027600010B500242E21F420FFF7A7FF052000F06C
:10277000B1FAF620FFF77AFF0446204610BD10B5E7
:1027800000243421F420FFF798FF052000F0A2FA7E
:10279000F620FFF76BFF0446F820FFF749FF00EB38
:1027A00004200412A4B2204610BD10B5D020FFF7BB
:1027B0003FFF784908700846007810BD10B52DED30
:1027C0000A8BFFF7CDFF73498861FFF7C9FF714995
:1027D0008861FFF7D4FF6F49C8610846806989891D
:1027E000401A6C4949894843C0136A49086208463F
:1027F000006AB1F9161008446649B1F91410C9020B
:1028000091FBF0F0634948620846006A496A08444F
:10281000604948630846406B083000114864084628
:10282000406BA0F57A6088630846806B40430013D4
:10283000B1F910104843C012564908620846B0F971
:102840000400896B4843C012524948620846006A36
:10285000496A08444F4988628A6AB1F9021002EB5A
:102860008101881CC11700EB91718910494AD1621E
:102870001046B0F906001146896B484340131146D3
:1028800008620846806B40430013B1F90E104843BC
:102890000014114648620846006A496A0844801CD0
:1028A00080101146886208460089896A01F5004156
:1028B0004843C00B114608630846C069C96A401AFC
:1028C0004CF2503148431146C8630846C06BB0F122
:1028D000004F08D20846C06B4000096BB0FBF1F016
:1028E0001146086408E02B48C06B2A49096BB0FB0D
:1028F000F1F04000274908642648006C001240436C
:10290000244908620846006A40F6DE314843001454
:10291000204908620846006C1F49484300141D49BD
:1029200048620846006A496A084400F6CF601949BF
:10293000096C01EB201017490864086C06F0E1F8F7
:102940009FED160B53EC102B05F056FF41EC1B0BC3
:102950009FED141BB0EE4B0AF0EE6B0A04F0E4FEA0
:10296000B0EE40AAF0EE60AA9FED100B53EC102BD6
:1029700051EC1A0B06F060FA9FED0E0B53EC102B86
:1029800006F026F905F04AFE02498864BDEC0A8B80
:1029900010BD0000A00B002043E3FFFF000000007B
:1029A000D0BCF8406C45D9CC955BC83F0000000016
:1029B0000000F03F0000000040A5E54070B504466F
:1029C000FEF72DFF3C20FEF7D6FFFEF769FF2046FD
:1029D000FEF7D1FFFEF764FFFEF721FF3D20FEF773
:1029E000CAFFFEF75DFF0020FEF7F2FF0546FEF787
:1029F000A1FFFEF736FF284670BD70B505460C46B0
:102A0000FEF70DFF3C20FEF7B6FFFEF749FF284614
:102A1000FEF7B1FFFEF744FF2046FEF7ACFFFEF7DE
:102A20003FFFFEF71EFF70BD10B570210020FFF7BD
:102A3000E4FF20210120FFF7E0FF00210220FFF743
:102A4000DCFF0020FFF7BAFF7049C8740120FFF7D0
:102A5000B5FF6E4908750220FFF7B0FF6B49887516
:102A60000A20FFF7ABFF6949C8750B20FFF7A6FFE7
:102A7000664908760C20FFF7A1FF644948760021DB
:102A8000624881764FF480506049C8804FF47040AE
:102A900088814FF4805008814FF47040C8814FF412
:102AA000805048814FF47040088210BD1CB5FEF77D
:102AB000B6FE3C20FEF75FFFFEF7F2FE0320FEF7B6
:102AC0005AFFFEF7EDFEFEF7AAFE3D20FEF753FF8C
:102AD000FEF7E6FE002406E00120FEF779FF0DF880
:102AE0000400601CC4B2062CF6DB0020FEF770FF69
:102AF0008DF80600FEF7B5FE9DF801009DF8001068
:102B000000EB012000B2414908809DF803009DF8C8
:102B1000021000EB012000B23C4988809DF80500BE
:102B20009DF8041000EB012000B2384948809DF860
:102B3000060088740846B0F9000010F5006F1CDD2F
:102B40000846B0F90000B0F5006F16DA0846B0F993
:102B50000000B1F90C10884203DD2C4800882B4995
:102B600088812A48B0F900002849B1F90610884246
:102B700003DA264800882549C8802448B0F90200B5
:102B800010F5006F1DDD2148B0F90200B0F5006FAF
:102B900017DA1E48B0F902001C49B1F90E1088423C
:102BA00003DD1A4840881949C8811848B0F9020065
:102BB0001649B1F90810884203DA144840881349CD
:102BC00008811248B0F9040010F5006F1DDD0F48B0
:102BD000B0F90400B0F5006F17DA0C48B0F9040042
:102BE0000A49B1F91010884203DD08488088074976
:102BF00008820648B0F904000449B1F90A10884275
:102C000003DA02488088014948811CBDEC0B002092
:102C100010B504466FF0040000F092F9E11704EBE0
:102C20005171C1F3C701394A11701046007800EBA9
:102C30004001C1EBC0104FF6FF7101EAC0003449FA
:102C4000088010BD0146314A12784A434FF0E02314
:102C50005A6100229A611A46126942F001021A6111
:102C600000BF4FF0E022106900F001021AB100F439
:102C70008032002AF5D04FF0E022126922F00102E2
:102C80004FF0E0231A6100229A6170470146204A02
:102C900012884A434FF0E0235A6100229A611A4693
:102CA000126942F001021A6100BF4FF0E022106980
:102CB00000F001021AB100F48032002AF5D04FF082
:102CC000E022126922F001024FF0E0231A61002293
:102CD0009A61704770B504464FF4077094FBF0F0AA
:102CE000C6B24FF4077094FBF0F100FB114085B2BF
:102CF00005E04FF40770FFF7C9FF701EC6B2002E43
:102D0000F7D115B12846FFF7C1FF70BD2C00002098
:102D10002E00002000BF704700BF4C4A128802F00E
:102D20004002002AF9D0C2B2484B9A80704710B5D1
:102D300088B004460121084600F028FF0121102038
:102D400000F07EFF07220921414800F00CFD072218
:102D50000A213F4800F007FD4FF4C06006900220B2
:102D60008DF81C008DF81D0000208DF81E0001203C
:102D70008DF81F0006A9364800F06AFC0294002076
:102D8000ADF80C00ADF80E00ADF81000ADF8140071
:102D90000C20ADF8120002A92C4801F004FF01211B
:102DA0002A4801F088FF012240F22551274802F00D
:102DB00038F825208DF8040003208DF805008DF8E3
:102DC000060001208DF8070001A800F06CF808B09B
:102DD00010BD10B540F225511C4802F05DF810B34B
:102DE0001A4801F097FFC4B21A48008800F4004066
:102DF000C8B91848008800F4804060B10A2C03D09C
:102E000000201449088020E01248008840F4004067
:102E10001049088019E00D2C06D10E48008840F4B6
:102E200080400C49088010E00A480088C0F30D007B
:102E300009490C5407480088401C06490880084688
:102E40000088C72801DD0020088010BD0010014067
:102E50000000024034000020080C00200948804790
:102E600009480047FEE7FEE7FEE7FEE7FEE7FEE76C
:102E7000FEE7FEE7FEE7FEE704480549054A064B84
:102E8000704700005908000889010008300D002033
:102E900030130020300F0020300F00203249014352
:102EA000324A1160704770B5002100230F22C478A8
:102EB0001CB32E4C246804F4E064C4F5E064C4F34D
:102EC0000721C1F10404E3B20A4144789C40E1B215
:102ED0008478144021430C07210E254C0578615558
:102EE000047804F01F050124AC4005786D11AD0095
:102EF00005F1E025C5F8004109E0047804F01F055C
:102F00000124AC401B4D0678761145F8264070BD73
:102F1000194A0A400243154B1B1F1A60704739B10A
:102F2000124A121D12680243104B1B1D1A6006E064
:102F30000E4A121D126882430C4B1B1D1A6070470B
:102F4000042808D14FF0E021096941F004014FF055
:102F5000E022116107E04FF0E021096921F004014E
:102F60004FF0E022116170470000FA050CED00E01F
:102F700000E400E080E100E080FFFF1F30B943F291
:102F8000DB028100A1F1C0410A6005E043F2D202F8
:102F90008100A1F1C0410A606FF07042411C8900BC
:102FA000A1F1C0410A608100A1F1C041C1F8042132
:102FB0007047D0E901121143C268114302691143FD
:102FC0004269114382691143C2691143026A114384
:102FD000426A1143826A1143C26A1143026B114370
:102FE00002689200A2F1C0421160816808290BD1E9
:102FF00001688900A1F1C041096841F040020168FF
:103000008900A1F1C0410A60416B0968426B5268B6
:1030100041EA0211426B926841EA0221426B9289B5
:1030200041EA0241426B128A41EA0251426B127D2F
:1030300041EA0261426B926911430268521C92009C
:10304000A2F1C0421160C16AB1F5804F1BD1816B02
:103050000968826B526841EA0211826B926841EA08
:103060000221826B128A41EA0251826B127D41EA8F
:103070000261826B9269114302689200A2F1C04220
:10308000C2F8041107E06FF0704201688900A1F1F5
:10309000C041C1F804217047002101600221416054
:1030A00000218160C160016141618161C161016292
:1030B0004FF480514162490081620021C162016385
:1030C000F84941638163704751B18200A2F1C04267
:1030D000126842F001038200A2F1C042136009E0CD
:1030E0008200A2F1C0421268EF4B1A408300A3F1A4
:1030F000C0431A60704710280AD118214FF02042AF
:103100001166402151664FF0FC319166D16610E0A6
:103110001821E64A116040214FF02042C2F8841085
:103120004FF0FC31E14A083211604FF02042C2F802
:103130008C10704730B5002100220023446844F011
:10314000080485682C43C5682C4305692C434569F0
:1031500044EA4524856944EA4531C4692468C5695F
:103160006D6844EA0524C5692D8944EA0544C569AA
:103170002D7B44EA0562046A2468056A6D6844EAA6
:103180000524056A2D8944EA0544056A2D7B44EA35
:1031900005630468102C05D14FF020442166A26617
:1031A000E36608E0C14C21604FF02044C4F8882059
:1031B000BE4C0C34236030BD102101600021416001
:1031C0008160C160016141618161FC21C26911605E
:1031D000C2695160C2699160C269D160026A1160BE
:1031E000026A5160026A9160026AD160704799B1C7
:1031F000102808D14FF02042126E42F004024FF026
:1032000020431A661DE0A94A126842F004024FF0FA
:103210002043C3F8802014E0102809D14FF0204249
:10322000126EA14BDB1E1A404FF020431A6608E0D5
:103230009E4A12689C4BDB1E1A404FF02043C3F895
:103240008020704799B1102808D14FF02042126EAB
:1032500042F040024FF020431A661DE0934A126884
:1032600042F040024FF02043C3F8802014E01028C1
:1032700009D14FF02042126E8B4B3F3B1A404FF06A
:1032800020431A6608E0894A1268874B3F3B1A4080
:103290004FF02043C3F880207047014600201029DA
:1032A00003D14FF02042506F02E0804A1432106880
:1032B000704718207D492031086000200906C1F8B8
:1032C000A4004FF0FC30794928310860091D0860DE
:1032D000091D08607047016841F01001426841EA29
:1032E0004221826841EA4231704A20321160C1684D
:1032F0000968C268526841EA0221C268128941EA3B
:103300000241C268127B41EA0261684A28321160B8
:10331000016909680269526841EA02210269128959
:1033200041EA02410269127B41EA02615F4A2C32A2
:103330001160416909684269526841EA02214269A3
:10334000128941EA02414269127B41EA02614FF06F
:103350002042C2F8B01070470021016041608160D6
:10336000FC21C2681160C2685160C2689160C26885
:10337000D16002691160026951600269916002695D
:10338000D16042691160426951604269916042694D
:10339000D160704748B145492031096841F00401C6
:1033A0004FF02042C2F8A01009E0404920310968DE
:1033B0003D4AD21E11404FF02042C2F8A010704783
:1033C00010B5F2B1102807D14FF020435B6E0B43CC
:1033D0004FF02044636632E0B0F5807F08D1334B74
:1033E0001B1D1B680B434FF02044C4F8843026E0BB
:1033F0002E4B24331B680B434FF02044C4F8A430F9
:103400001DE0102807D14FF020435B6E8B434FF037
:103410002044636613E0B0F5807F08D1234B1B1D69
:103420001B688B434FF02044C4F8843007E01F4BE7
:1034300024331B688B434FF02044C4F8A43010BDE4
:1034400010B5024600200023102A03D14FF020447B
:10345000636E09E0B2F5807F03D1144C241D23680C
:1034600002E0124C2434236803EA01040CB1012069
:1034700000E0002010BD102807D14FF02042526E0E
:103480008A434FF020435A6619E0B0F5807F0FD190
:10349000064A121D12688A434FF02043C3F8842065
:1034A0000DE0000068AB0008FEFF0F00800000A0E8
:1034B000234A12688A434FF02043C3F8A420704780
:1034C00070B502460020002300240025102A03D1F5
:1034D0004FF02046736E08E0B2F5807F03D1184E9E
:1034E000203E336801E0164E336803EA010403EA24
:1034F000D10514B10DB1012000E0002070BD1028ED
:1035000008D14FF02042526E22EAD1024FF0204300
:103510005A6614E0B0F5807F09D1094A203A126852
:1035200022EAD1024FF02043C3F8842007E0044A86
:10353000126822EAD1024FF02043C3F8A42070475A
:10354000A40000A010B504469848844208D1012187
:10355000084600F086FB0021012000F082FB76E0A7
:103560009348844208D10121022000F07AFB002117
:10357000022000F076FB6AE08E48844208D10121E7
:10358000042000F06EFB0021042000F06AFB5EE0E6
:103590008948844208D10121082000F062FB002103
:1035A000082000F05EFB52E08448844208D10121EB
:1035B000102000F056FB0021102000F052FB46E0E6
:1035C0007F48844208D10121202000F04AFB0021DD
:1035D000202000F046FB3AE07A48844208D10121DD
:1035E000402000F03EFB0021402000F03AFB2EE09E
:1035F0007548844208D10121802000F032FB00216F
:10360000802000F02EFB22E07048844208D1012186
:10361000801500F026FB0021A01500F022FB16E02B
:103620006B48844208D10121401500F01AFB0021AB
:10363000601500F016FB0AE06648844207D10121BC
:10364000001500F00EFB0021201500F00AFB10BD54
:10365000F0B50A4600210023002400BF3DE001250B
:1036600005FA01F3156805EA03049C4234D10568A4
:103670004F000326BE40B543056015794E00B540A6
:103680000668354305601579012D02D01579022DA4
:1036900016D185684F000326BE40B5438560557935
:1036A0004E00B540866835438560456801268E40EA
:1036B000B5434560456896798E40B6B2354345605E
:1036C000C5684F000326BE40B543C560D5794E009E
:1036D000B540C6683543C560491C1029BFD3F0BD4D
:1036E0004FF6FF7101600021017141718171C1715B
:1036F000704708B54FF480320092009A0A43009256
:10370000009AC261C161009AC261C2690092C26935
:10371000009208BD0246002013690B400BB1012046
:1037200000E0002070470146086980B270470246F9
:10373000002053690B400BB1012000E000207047CE
:103740000146486980B270470183704741837047E2
:103750000AB1018300E041837047416170474269CB
:103760004A4042617047F0B5002300244D07ED0E3A
:1037700002FA05F3CE1000F1200555F826504E0749
:10378000F70E0F26BE40B543CF1000F1200646F8D5
:103790002750CE1000F1200555F8265045EA0304C5
:1037A000CE1000F1200545F82640F0BD0000024093
:1037B0000004024000080240000C024000100240D9
:1037C0000014024000180240001C02400020024089
:1037D0000024024000280240F948006840F001003F
:1037E000F74908600020F64908310860F44800688D
:1037F000F4490840F2490860F348091D0860F3489D
:10380000EF4984310860F0481038091D0860EC4821
:10381000006820F48020EA4908600020E8490C3163
:103820000860E7498C31086070470021E44A921C27
:10383000117011460870704710B501460022002330
:1038400000204A11012A02D1DD4C236808E0022A37
:1038500003D1DB4C7034236802E0D94C7434236804
:1038600001F01F02012494401C400CB1012000E033
:10387000002010BD38B5002000900024002500BFB6
:103880003120FFF7D9FF05460098401C00900098B2
:10389000B0F5A04F01D0002DF2D03120FFF7CCFFC2
:1038A00008B1012400E00024204638BD0146002074
:1038B000C34A106820F0F80040EAC1001060704769
:1038C000C349086070470021BD4A70321170117001
:1038D000012802D004280AD104E00121B84A70323C
:1038E000117005E00521B64A7032117000E000BF8A
:1038F00000BF7047B7490860704770B5049C41EA43
:1039000082150126C6EB530645EA0645054345EAFE
:103910000465AB4E361D356070BDAD490866704715
:10392000820142EA0172A64B84331A607047A849AB
:103930008866704710B5830143EA016343EA027366
:103940009F4C8834236010BDA14908677047A04987
:10395000C864704702460020994B0833186820F06D
:10396000EC6042EA01031843954B08331860704736
:1039700002460020924B0833186820F0784042EA53
:10398000010318438E4B083318607047014600202E
:103990008B4A0832106820F003000843106070471B
:1039A00087480830006800F00C007047014600208E
:1039B000834A0832106820F0F00008431060704716
:1039C000014600207E4A0832106820F4E050084387
:1039D0001060704701460020794A0832106820F4D0
:1039E000604040EAC10010607047F0B5002100223D
:1039F0000024022500260223714F08373F6807F094
:103A00000C0121B1042905D0082937D105E0724FF6
:103A1000076036E0714F076033E0694F3F1D3F6834
:103A2000C7F38056664F3F1D3F6807F03F036EB1F6
:103A30006A4FB7FBF3F7DFF888C10CF1040CDCF830
:103A400000C0CCF3881C07FB0CF40CE0624FB7FB02
:103A5000F3F7DFF86CC10CF1040CDCF800C0CCF318
:103A6000881C07FB0CF4564F3F1D3F68C7F3014706
:103A70007F1C7D00B4FBF5F7076002E0564F07603E
:103A800000BF00BF4E4F08373F6807F0F00109093B
:103A9000534F7A5C0768D7404760494F08373F6803
:103AA00007F4E051890A4E4F7A5C4768D740876037
:103AB000434F08373F6807F46041490B484F7A5C31
:103AC0004768D740C760F0BD002100F44072B2F5EE
:103AD000407F0AD13A4A0832116821F4F811414A6C
:103AE00002401143364A08321160354A703212687A
:103AF000C0F30B031A43324B70331A6070473549D9
:103B00004439086070473349403908607047364986
:103B10000860704701460020294A8C32106820F066
:103B20001F004A1E1043264A8C321060704701461F
:103B30000020234A8C32106820F4F8504A1E40EAD4
:103B400002201F4A8C3210607047014600201C4A38
:103B50008C32106820F44010084310607047014612
:103B60000020174A8C32106820F44000084310608F
:103B7000704701460020124A8C32106820F4403011
:103B800008431060704719490860704739B10C4A02
:103B90003032126802430A4B30331A6006E0084A9A
:103BA000303212688243064B30331A607047F9B1E5
:103BB000034A343212680243014B34331A601CE06A
:103BC00000380240FFFFF6EA1030002400300020E9
:103BD00000004742800E47420024F40000127A00A1
:103BE00036000020FFFCFF0F5C014742E011474216
:103BF0008F4A126882438E4B1A60704739B18C4AE3
:103C0000121D126802438A4B1B1D1A6006E0884A87
:103C1000121D12688243864B1B1D1A60704739B112
:103C2000834A0C3212680243814B0C331A6006E05F
:103C30007F4A0C32126882437D4B0C331A60704706
:103C400039B17B4A103212680243794B10331A6043
:103C500006E0774A103212688243754B10331A60BF
:103C6000704739B1724A243A12680243704B243BC0
:103C70001A6006E06E4A243A126882436C4B243B79
:103C80001A60704739B16A4A203A12680243684B99
:103C9000203B1A6006E0664A203A12688243644B71
:103CA000203B1A60704739B1614A1C3A12680243DE
:103CB0005F4B1C3B1A6006E05D4A1C3A1268824367
:103CC0005B4B1C3B1A60704739B1594A143A126871
:103CD0000243574B143B1A6006E0554A143A1268E7
:103CE0008243534B143B1A60704739B1504A103A23
:103CF000126802434E4B103B1A6006E04C4A103AE1
:103D0000126882434A4B103B1A60704739B1484AE7
:103D10001C3212680243464B1C331A6006E0444AC8
:103D20001C3212688243424B1C331A60704739B10F
:103D30003F4A2032126802433D4B20331A6006E0AE
:103D40003B4A203212688243394B20331A60704755
:103D500039B1374A243212680243354B24331A6092
:103D600006E0334A243212688243314B24331A600E
:103D7000704739B12E4A2C32126802432C4B2C3337
:103D80001A6006E02A4A2C3212688243284B2C33F0
:103D90001A60704739B1264A303212680243244B08
:103DA00030331A6006E0224A303212688243204BD8
:103DB00030331A607047012808D11D493C31096829
:103DC00041F008011A4A3C32116007E018493C31C1
:103DD000096821F00801164A3C321160704739B178
:103DE000134A273A12780243114B273B1A7006E018
:103DF0000F4A273A127882430D4B273B1A707047BF
:103E00000B484030006840F080700949403108603C
:103E1000704701460020064A283A12680A400AB153
:103E2000012000E0002070470149263908707047E2
:103E30003438024010B50446FE48844208D10121BE
:103E40000846FFF752FF00210120FFF74EFF9DE0DB
:103E5000B4F1804F08D101210846FFF735FF00215A
:103E60000120FFF731FF91E0F348844208D101219E
:103E70000220FFF729FF00210220FFF725FF85E040
:103E8000EE48844208D101210420FFF71DFF0021E4
:103E90000420FFF719FF79E0E948844208D10121A5
:103EA0000820FFF711FF00210820FFF70DFF6DE04C
:103EB000E448844208D101211020FFF705FF0021CA
:103EC0001020FFF701FF61E0DF48844208D10121A3
:103ED0002020FFF7F9FE00212020FFF7F5FE55E036
:103EE000DA48844208D101210220FFF7FEFE0021BA
:103EF0000220FFF7FAFE49E0D548844209D10121AA
:103F00000804FFF7F2FE00214FF48030FFF7EDFECA
:103F10003CE0D048844209D101214804FFF7E5FE86
:103F200000214FF40030FFF7E0FE2FE0CA48844242
:103F300009D101218804FFF7D8FE00214FF4802029
:103F4000FFF7D3FE22E0C548844208D1012140207A
:103F5000FFF7BAFE00214020FFF7B6FE16E0C0488A
:103F6000844208D101218020FFF7AEFE002180208D
:103F7000FFF7AAFE0AE0BB48844207D10121801561
:103F8000FFF7A2FE0021A015FFF79EFE10BD002244
:103F90000288A84B98420ED0AC4B98420BD0B0F19F
:103FA000804F08D0A44B984205D0A44B984202D031
:103FB000A34B984204D14FF68F731A404B881A4393
:103FC000A04B984207D0A04B984204D04FF6FF4335
:103FD0001A400B891A4302804B68C3620B88038521
:103FE000944B984202D0994B984201D18B7A038628
:103FF0000123838270474FF0FF314160002101802F
:1040000001814180817270470185828270470A4632
:10401000002101884FF68F731940114301807047CA
:1040200041627047C16270470146486A7047014665
:10403000088D704721B1028842F00202028004E03C
:1040400002884FF6FD731A400280704721B1028842
:1040500042F00402028004E002884FF6FB731A402B
:104060000280704721B1028842F08002028004E0A1
:1040700002884FF67F731A400280704702884FF61D
:10408000F7731A40028002880A4302807047028850
:104090004FF6FF431A40028002880A4302807047AD
:1040A00021B1028842F00102028004E002884FF64A
:1040B000FE731A400280704770B50024002200236E
:1040C000058C4FF6FE7635400584028C8388048B80
:1040D0004FF68F752C40B51E2C400D882C43751E55
:1040E0002A408D892A434D882A43524DA84202D046
:1040F000564DA84213D14FF6F7752A40CD892A4371
:104100004FF6FB752A408D882A434FF6FF652B40FA
:104110004FF6FF552B400D8A2B434D8A2B4383804E
:1041200004838D684563028470BD70B5002400224D
:104130000023058C4FF6EF7635400584028C83888A
:10414000048B48F6FF752C404FF6FF452C400D8838
:104150004FF6FF7606EA05252C434FF6DF752A4019
:104160008D8906EA05152A434D8806EA05152A4376
:10417000304DA84202D0354DA8421DD14FF67F7573
:104180002A40CD894FF6FF7606EA05152A434FF6F9
:10419000BF752A408D8806EA05152A434FF6FF357C
:1041A0002B404FF2FF752B400D8A06EA85052B4305
:1041B0004D8A06EA85052B43838004838D688563D9
:1041C000028470BD70B5002400220023058C4FF6D8
:1041D000FF6635400584028C8388848B4FF68F758B
:1041E0002C404FF6FC752C400D882C434FF6FF55A4
:1041F0002A408D894FF6FF7606EA05252A434D8829
:1042000006EA05252A430B4DA84202D00F4DA842CD
:1042100038D14FF2FF752A40CD894FF6FF7606EA76
:1042200005252A434FF6FF352A408D8806EA0525E5
:104230002A4319E00000014000040040000800404B
:10424000000C004000100040001400400004014039
:104250000040014000440140004801400018004077
:10426000001C0040002000404EF6FF752B404DF62C
:10427000FF752B400D8A06EA05152B434D8A06EA89
:1042800005152B43838084838D68C563028470BDCC
:1042900070B5002200230024058C4EF6FF763540D1
:1042A0000584038C8488828B48F6FF752A404FF67C
:1042B000FF452A400D884FF6FF7606EA05252A437A
:1042C0004DF6FF752B408D8906EA05352B434D8849
:1042D00006EA05352B43FE4DA84202D0FD4DA8420B
:1042E00008D14BF6FF752C400D8A4FF6FF7606EA93
:1042F00085152C43848082838D680564038470BD9A
:10430000002101804180818081608181C1810182A1
:104310004182704770B503460020002418461830CB
:1043200001258D40ACB21D8CA5431D8409B108291F
:104330000AD100EB610005684FF68F7635400560C5
:104340000568154305600FE00D1FC5F34E052844B1
:10435000056848F6FF763540056005684FF6FF763C
:1043600006EA02263543056070BD416370478163EC
:104370007047C1637047016470470A460021018B92
:104380004FF68F7319401143018370470A4600218D
:10439000018B48F6FF7319404FF6FF7303EA0223BF
:1043A0001943018370470A460021818B4FF68F73B2
:1043B00019401143818370470A460021818B48F6DA
:1043C000FF7319404FF6FF7303EA022319438183F9
:1043D00070470A460021018B4FF6F77319401143CD
:1043E000018370470A460021018B4FF2FF73194089
:1043F0004FF6FF7303EA02231943018370470A460D
:104400000021818B4FF6F773194011438183704768
:104410000A460021818B4FF2FF7319404FF6FF735C
:1044200003EA02231943818370470A460021018B66
:104430004FF6FB7319401143018370470A46002170
:10444000018B4FF6FF3319404FF6FF7303EA022347
:104450001943018370470A460021818B4FF6FB7395
:1044600019401143818370470A460021818B4FF622
:10447000FF3319404FF6FF7303EA02231943818388
:1044800070470A460021018B4FF67F731940114394
:10449000018370470A460021018BC1F30E014FF6DC
:1044A000FF7303EA02231943018370470A46002180
:1044B000818B4FF67F7319401143818370470A4601
:1044C0000021818BC1F30E014FF6FF7303EA022333
:1044D0001943818370470A460021018C4FF6FD7312
:1044E00019401143018470470A460021018C4FF6A0
:1044F000F77319401143018470470A460021018C6B
:104500004FF6DF7319404FF6FF7303EA02131943A6
:10451000018470470A460021018C4FF67F731940D1
:104520004FF6FF7303EA02131943018470470A46EA
:104530000021018C4FF6FF5319404FF6FF7303EA39
:1045400002231943018470470A460021018C4FF26F
:10455000FF7319404FF6FF7303EA022319430184E6
:1045600070470A460021018C4DF6FF7319404FF643
:10457000FF7303EA023319430184704730B5002307
:1045800001248C40A3B2048C9C430484048C02FA62
:1045900001F5ADB22C43048430BD30B500230424B2
:1045A0008C40A3B2048C9C430484048C02FA01F571
:1045B000ADB22C43048430BD828B4FF2FF331A40DE
:1045C0008283828B4FF6FF7303EA01231A438283AF
:1045D0007047F0B50C461546002100220026078CD6
:1045E0004EF6FF7C07EA0C070784818B028C4FF69E
:1045F000FF7707EA043640F6FF4739404FF6FF776A
:1046000007EA052739434FF6FF7707EA03373943AF
:1046100045F6FF773A4046F480573A438183028457
:10462000F0BD828B4FF6F3731A408283828B0A436C
:1046300082837047F0B50C46154600210022002603
:10464000078C4FF6FF6C07EA0C070784818B028CFE
:104650004FF6FF7707EA04264FF60C7739404FF6FE
:10466000FF7707EA03172F4339434FF2FF573A40CA
:1046700046F480773A4381830284F0BD028B4FF287
:10468000FF331A400283028B4FF6FF7303EA0123C4
:104690001A4302837047F0B50C46154600210022EC
:1046A0000026078C4FF6EF7C07EA0C070784018B86
:1046B000028C4FF6FF7707EA041640F6FF473940B1
:1046C0004FF6FF7707EA033739434FF6FF7703E0EA
:1046D000000001400004014007EA052739434FF676
:1046E0005F773A4046F010073A4301830284F0BDF9
:1046F000028B4FF6F3731A400283028B0A43028344
:104700007047F0B50C46154600210022068C4FF686
:10471000FE773E400684018B028C4FF60C763140CA
:104720007E1C06EA03162E4331434FF6F5763240DF
:1047300044F00106324301830284F0BD70B50546A2
:104740000C46208850B92389A28861882846FFF743
:10475000D8FFE1882846FFF7CBFF25E02088042812
:104760000AD12389A28861882846FFF794FFE1884F
:104770002846FFF783FF17E0208808280AD12389FD
:10478000A28861882846FFF755FFE1882846FFF791
:1047900048FF09E02389A28861882846FFF719FFAE
:1047A000E1882846FFF708FF70BD002101804180A5
:1047B000012181800021C180018170472DE9F041F4
:1047C00005460C4600260127608808B9022600E04D
:1047D0000026A088012801D1022700E001272088B7
:1047E000A0B92389A28861882846FFF78AFFE1885B
:1047F0002846FFF77DFF23893A4631462846FFF7D2
:104800004AFFE1882846FFF739FF13E02389A28891
:1048100061882846FFF73FFFE1882846FFF72EFF13
:1048200023893A4631462846FFF76BFFE188284640
:10483000FFF75EFFBDE8F0810146486B7047014617
:10484000886B70470146C86B70470146086C70471B
:104850000A884B881A438B881A43CB881A430B89E2
:104860001A434B891A438B891A43A0F84420704796
:104870000021018041808180C1800181418181814D
:10488000704731B1B0F8442042F40042A0F844200F
:1048900005E0B0F84420C2F30E02A0F844207047AF
:1048A00021B1828842F00402828004E082884FF6BF
:1048B000FB731A408280704721B1828842F0010266
:1048C000828004E082884FF6FE731A40828070472F
:1048D0001AB183890B43838102E083898B438381EF
:1048E00070478182704702460020138A0B400BB14B
:1048F000012000E000207047CA430282704730B5B3
:104900000246002000230024158A05EA0103958948
:1049100005EA010413B10CB1012000E0002030BD14
:10492000CA430282704741EA0203A0F84830704748
:104930001AB183890B43838102E083898B4383818E
:10494000704721B1828842F00802828004E08288A8
:104950004FF6F7731A408280704701894FF6F8725C
:104960001140018170470A46002101894FF68F737B
:10497000194011430181704730B504460D46294660
:104980002046FFF7F0FF208940F00700208130BD6E
:104990002DE9F04104460D4616461F46602D06D10E
:1049A0003B46012231462046FFF775FE05E03B46B7
:1049B000012231462046FFF7A4FE29462046FFF794
:1049C000D2FF208940F007002081BDE8F08130B59A
:1049D0000C4600210189C9B24FF6FF7505EA03258F
:1049E000154325432943018130BD2DE9F04105469A
:1049F0000E4617469846002443463A463146284616
:104A0000FFF7E5FF2C894FF6F870044044F00704E7
:104A10004FF68F70044044F070042C81BDE8F081A3
:104A2000F0B504460D4616461F463B46324629461B
:104A30002046FFF7CCFF208940F480402081F0BD64
:104A400082884FF68F731A40828082880A43828060
:104A5000704702894FF6F8731A40028102890A43AF
:104A60000281704702894FF67F731A4002810289E2
:104A70000A4302817047F0B50C4615461E460021D8
:104A8000002200230189028B038C4FF6F87739400E
:104A900021434FF6FC473A4040F201173A434FF6A4
:104AA000DD773B404FF6FF7707EA06172F433B437E
:104AB000018102830384F0BD21B1828842F080022B
:104AC000828004E082884FF67F731A4082807047AC
:104AD000A0F850107047000010B50446FA48844210
:104AE00008D101211020FFF700F900211020FFF765
:104AF000FCF857E0F548844209D101214804FFF74A
:104B0000E3F800214FF40030FFF7DEF84AE0F04808
:104B1000844209D101218804FFF7D6F800214FF41F
:104B20008020FFF7D1F83DE0EA48844209D1012115
:104B3000C804FFF7C9F800214FF40020FFF7C4F8BC
:104B400030E0E548844209D101210805FFF7BCF8AF
:104B500000214FF48010FFF7B7F823E0DF488442CC
:104B600008D101212020FFF7C0F800212020FFF705
:104B7000BCF817E0DA48844209D101218807FFF721
:104B8000A3F800214FF08040FFF79EF80AE0D548D7
:104B9000844207D101214005FFF796F80021600506
:104BA000FFF792F810BD2DE9FF4705460E46002499
:104BB000A14600BFA046B08900B100BF2C8A24F4F2
:104BC0004054F08804432C82AC8941F20C60844349
:104BD000B08831890843718908430443AC81AC8AA9
:104BE00024F44074B0890443AC826846FEF7FDFEAD
:104BF000B548854202D0B948854202D1DDF80C9013
:104C000001E0DDF80890A88900F4004040B109EB0C
:104C1000C90000EB091031684900B0FBF1F707E06B
:104C200009EBC90000EB091031688900B0FBF1F70E
:104C30006420B7FBF0F004012009642101FB107827
:104C4000A88900F4004040B1322000EBC800B0FB5E
:104C5000F1F000F00700044308E0322000EB0810F8
:104C60006421B0FBF1F000F00F0004432C81BDE89B
:104C7000FF874FF41651016000218180C1800181BE
:104C80000C21418100218181704710B5024600202E
:104C9000108A20F470600B884C8823438C8823434F
:104CA000CC8823431843108210BD0021018041802D
:104CB0008180C180704721B1828942F40052828193
:104CC00004E082894DF6FF731A4082817047028B9F
:104CD00002F47F420283028B0A430283704721B1B0
:104CE000828942F40042828103E08289C2F30E028B
:104CF0008281704721B1828A42F40062828204E09C
:104D0000828A4FF2FF731A4082827047C1F3080211
:104D10008280704701468888C0F308007047028A85
:104D20004FF6F0731A400282028A0A4302827047E9
:104D300021B1828942F00202828104E082894FF629
:104D4000FD731A408281704782894FF2FF731A40C7
:104D5000828182890A4382817047028A4FF6DF731B
:104D60001A400282028A0A430282704721B1028AF3
:104D700042F48042028204E0028A4BF6FF731A403A
:104D800002827047818941F001018181704721B120
:104D9000828A42F00802828204E0828A4FF6F77328
:104DA0001A4082827047028BD2B20283028B42EA9F
:104DB00001220283704721B1828A42F0200282825E
:104DC00004E0828A4FF6DF731A408282704721B175
:104DD000828A42F01002828204E0828A4FF6EF73E8
:104DE0001A4082827047828A4FF6FB731A40828291
:104DF000828A0A438282704721B1828A42F002028B
:104E0000828204E0828A4FF6FD731A4082827047E4
:104E10001AB1838A0B43838202E0838A8B438382A5
:104E20007047F0B50346002400260025002040F618
:104E30006A17B94200D100BF1846C1F3421401F00D
:104E40001F06012707FA06F5012C01D10C3004E0FA
:104E5000022C01D1103000E014301AB107682F4342
:104E6000076002E00768AF430760F0BD024600201C
:104E7000B1F5007F00D100BF13880B400BB10120BA
:104E800000E00020704701F40072B2F5007F00D10D
:104E900000BFCA430280704770B502460024002359
:104EA0000025002040F66A16B14200D100BFC1F3D0
:104EB000421501F01F03012606FA03F3012D13D159
:104EC0009689334017E00000001001400044004084
:104ED00000480040004C00400050004000140140D9
:104EE00000780040007C0040022D02D1168A334039
:104EF00001E0968A33400C12012606FA04F4168863
:104F0000344013B10CB1012000E0002070BD10B599
:104F10000022002340F66A14A14200D100BF0A1209
:104F200001249440A3B2DC43048010BD10B58CB0C2
:104F300004461E230BAA03A9204600F0A9FE0090F8
:104F4000009810B101200CB010BD9DF82C00044455
:104F500000200B900EE040489DF82C2050F82210C5
:104F600003A800F0FDFD00B908E09DF82C00401CEE
:104F7000C0B20B909DF82C000728ECD300BF9DF821
:104F80002C00072863D2DFE800F004053C5E65646E
:104F9000630000BF31A001F08BF831A001F088F868
:104FA0003FA001F085F84EA001F082F85CA001F06E
:104FB0007FF86BA001F07CF879A001F079F886A069
:104FC00001F076F88BA001F073F890A001F070F872
:104FD00094A001F06DF899A001F06AF89EA001F08C
:104FE00067F8A4A001F064F8B0A001F061F8BDA0DA
:104FF00001F05EF8C8A001F05BF8D4A001F058F809
:105000009AE216A001F054F8E0A001F051F8002057
:105010000B900EE0ED4800689DF82C2000EBC200DC
:105020004168EBA001F044F89DF82C00401CC0B290
:105030000B90E648007D9DF82C108842EADC07A022
:1050400001F036F878E205A001F032F8C4E171E22F
:1050500045E219E2ECE10000480000200D0A0000E2
:105060002D2D2D2D2D2D2D2D2D2D2D2D2D2D2D2D70
:105070002D2D2D2D2D2D2D2D55534D415254205676
:10508000332E312D2D2D2D2D2D2D2D2D2D2D2D2D45
:105090002D2D2D2D2D2D2D2D2D2D2D200D0A0000EA
:1050A0002020202055534D415254CAC7D3C9414CEA
:1050B00049454E54454BBFAAB7A2B5C4D2BBB8F6BA
:1050C000C1E9C7C9B5C4B4AEBFDAB5F7CAD4BBA588
:1050D000BDBBD7E9BCFE2CCDA8B9FD200D0A000050
:1050E000CBFC2CC4E3BFC9D2D4CDA8B9FDB4AEBFAC
:1050F000DAD6FACAD6B5F7D3C3B3CCD0F2C0EFC371
:10510000E6B5C4C8CEBACEBAAFCAFD2CB2A2D6B4E8
:10511000D0D02ED2F2B4CB2CC4E3BFC90D0A00000C
:10512000D2D4CBE6D2E2B8FCB8C4BAAFCAFDB5C49B
:10513000CAE4C8EBB2CECAFD28D6A7B3D6CAFDD7FB
:10514000D62831302F3136BDF8D6C629A1A2D7D600
:10515000B7FBB4AEA1A2BAAFCAFDC8EB0D0A0000FE
:10516000BFDAB5D8D6B7B5C8D7F7CEAAB2CECAFD82
:10517000292CB5A5B8F6BAAFCAFDD7EEB6E0D6A7CA
:10518000B3D63130B8F6CAE4C8EBB2CECAFD2CB201
:10519000A2D6A7B3D6BAAFCAFDB7B5200D0A000094
:1051A000BBD8D6B5CFD4CABE2ED0C2D4F6B2CECAE2
:1051B000FDCFD4CABEBDF8D6C6C9E8D6C3B9A6C409
:1051C000DC2CD0C2D4F6BDF8D6C6D7AABBBBB9A6D4
:1051D000C4DC2E0D0A000000BCBCCAF5D6A7B3D6AD
:1051E0003A7777772E6F70656E6564762E636F6D94
:1051F0000D0A000055534D415254D3D037B8F6CF65
:10520000B5CDB3C3FCC1EE3A0D0A00003F3A2020F1
:1052100020202020BBF1C8A1B0EFD6FAD0C5CFA284
:105220000D0A000068656C703A202020BBF1C8A10F
:10523000B0EFD6FAD0C5CFA20D0A00006C69737426
:105240003A202020BFC9D3C3B5C4BAAFCAFDC1D06C
:10525000B1ED0D0A0A00000069643A2020202020E8
:10526000BFC9D3C3BAAFCAFDB5C44944C1D0B1EDBB
:105270000D0A0A006865783A20202020B2CECAFDC7
:105280003136BDF8D6C6CFD4CABE2CBAF3B8FABFF1
:10529000D5B8F12BCAFDD7D6BCB4D6B4D0D0BDF8A2
:1052A000D6C6D7AABBBB0D0A0A0000006465633AE4
:1052B00020202020B2CECAFD3130BDF8D6C6CFD4D2
:1052C000CABE2CBAF3B8FABFD5B8F12BCAFDD7D6EF
:1052D000BCB4D6B4D0D0BDF8D6C6D7AABBBB0D0AD5
:1052E0000A00000072756E74696D653A312CBFAAB0
:1052F000C6F4BAAFCAFDD4CBD0D0BCC6CAB13B301D
:105300002CB9D8B1D5BAAFCAFDD4CBD0D0BCC6CA9F
:10531000B13B0D0A0A000000C7EBB0B4D5D5B3CC41
:10532000D0F2B1E0D0B4B8F1CABDCAE4C8EBBAAFAC
:10533000CAFDC3FBBCB0B2CECAFDB2A2D2D4BBD8A8
:10534000B3B5BCFCBDE1CAF82E0D0A002D2D2D2DE4
:105350002D2D2D2D2D2D2D2D2D2D2D2D2D2D2D2D7D
:105360002D2D2D2D2D2D414C49454E54454B2D2D88
:105370002D2D2D2D2D2D2D2D2D2D2D2D2D2D2D2D5D
:105380002D2D2D2D2D2D2D200D0A00002D2D2D2DF7
:105390002D2D2D2D2D2D2D2D2D2D2D2D2D2D2D2D3D
:1053A0002D2D2D2D2DBAAFCAFDC7E5B5A52D2D2D5F
:1053B0002D2D2D2D2D2D2D2D2D2D2D2D2D2D2D2D1D
:1053C0002D2D2D2D2D2D2D2D200D0A009C00002082
:1053D00025730D0A00000000EEA000F069FE002019
:1053E0000B901AE0FB4909689DF82C2001EBC201E3
:1053F00001AB02AA486803A900F070FCF5480068F8
:105400009DF82C1050F8312003A9F3A000F050FEB5
:105410009DF82C00401CC0B20B90EE48007D9DF81A
:105420002C108842DEDCAFF2CC3000F041FE83E08D
:10543000AFF2D83000F03CFE0BAA03A9204600F0E2
:1054400029FD9DF82C00C8B9694603A800F0BBFBF4
:105450000B909DF82C0020B9E4A0009900F028FEE4
:105460000EE09DF82C00042801D002206BE5E2A09C
:1054700000F01EFE0120D749C87501E0022062E558
:10548000DCA000F015FE57E0DAA000F011FE0BAA38
:1054900003A9204600F0FEFC9DF82C00C8B969461F
:1054A00003A800F090FB0B909DF82C0020B9D7A02A
:1054B000009900F0FDFD0EE09DF82C00042801D0BD
:1054C000022040E5D4A000F0F3FD0020C149C875DA
:1054D00001E0022037E5C7A000F0EAFD2CE0C5A0FE
:1054E00000F0E6FD0BAA03A9204600F0D3FC9DF8CE
:1054F0002C00C8B9694603A800F065FB0B909DF825
:105500002C0078B9B349009881F8EC00084690F86F
:10551000EC0018B1C5A000F0CBFD07E0CAA000F078
:10552000C7FD03E002200EE502200CE5B1A000F06B
:10553000BFFD01E0012006E500BF002003E510B536
:105540000121C848FFF7D8F94FF6FF71C548FEF7AB
:1055500069FD0021C348FEF763FD00209D49C1F8A5
:10556000F00010BD10B50121BE48FFF7BCF90128BD
:1055700008D19848D0F8F0004FF6FF7108449549DB
:10558000C1F8F000B748FEF74FFD9249D1F8F0108E
:1055900008449049C1F8F0000846D0F8F00010BD6A
:1055A00010B50121AF48FFF7AAF901280AD18949AE
:1055B000086980470021AB48FEF732FD6421A94805
:1055C000FEF730FD0121A748FFF7AAF910BD7FB50E
:1055D00004460D4601210420FEF721FBADF80050E2
:1055E0000020ADF802000194ADF8080069469D481E
:1055F000FEF7CDFC012211469A48FFF769F9012117
:105600009848FEF74DFD1E208DF80C0003208DF804
:105610000D008DF80E0001208DF80F0003A8FDF796
:1056200042FC7FBD10B5044604EBC40000EB04103F
:105630000122C2EB800081B24FF47A70FFF7C7FFFE
:1056400001206449C87510BD30B595B0054613AB4F
:1056500012AA09A9284600F041FB044614B12046CD
:1056600015B030BD0020149026E05A4909689DF815
:10567000502001EBC20113AB11AA486801A900F048
:105680002DFB04460CB12046EAE709A901A800F069
:1056900067FA60B99DF844009DF84810884201DD22
:1056A0000220DDE79DF850004A4988750AE09DF820
:1056B0005000401CC0B214904648007D9DF8501028
:1056C0008842D2DC00BF4348007D9DF850108842DC
:1056D00001D10420C4E714A9284600F04CFC04467C
:1056E0000CB12046BCE79DF850003A4948750020AF
:1056F000B6E72DE9F0419AB03648847D007DA0429E
:1057000002DC1AB0BDE8F0813249096801EBC4013E
:1057100006AB07AA486808A900F0E0FA08A952A059
:1057200000F0C6FC0026B9E02A48008B0121B140F8
:105730000840D8B122214EA000F0BAFC304600F05B
:105740000DFC24492431471839464AA000F0B0FC2A
:10575000222147A000F0ACFC304600F0FFFB1D49C1
:105760002431084410A941F826008DE0304600F0AD
:10577000F5FB18492431085810A941F826001548AE
:10578000C07D30B910A850F826103BA000F090FC66
:105790007AE073E02D2D2D2D2D2D2D2D2D2D2D2D40
:1057A0002D2D2D2D2D2D2D2D2D2D2D2D2DBAAFCA7D
:1057B000FD204944202D2D2D2D2D2D2D2D2D2D2D30
:1057C0002D2D2D2D2D2D2D2D2D2D2D2D2D2D2D2D09
:1057D000200D0A009C000020257320696420697355
:1057E0003A0D0A3058253038580D0A004845583AC5
:1057F000305825580D0A00003136BDF8D6C6B2CE55
:10580000CAFDCFD4CABE210D0A0000004445433A68
:10581000256C750D0A0000003130BDF8D6C6B2CE39
:10582000CAFDCFD4CABE210D0A00000052756E20F9
:1058300054696D652043616C63756C6174696F6E4A
:10584000204F4E0D0A00000052756E2054696D65A0
:105850002043616C63756C6174696F6E204F4646BE
:105860000D0A0000000800400D0A25732800000002
:105870002563000025730000256C750010A850F802
:10588000261095A000F014FC9DF81C00401EB042AC
:1058900002D093A000F00CFC701CC6B29DF81C0056
:1058A0008642FFF641AF8FA000F002FCFFF747FEF3
:1058B0008D48407D0B280DD2DFE800F0060D151E47
:1058C00027323F4E5F7287008749096851F83400DC
:1058D0008047054690E0844A126852F834101098C8
:1058E0008847054688E0804B1B6853F83420DDE983
:1058F0001001904705467FE07B4F3F6857F83430F2
:1059000010A807C89847054676E0DFF8DCC1DCF848
:1059100000C05CF8347010A80FC8B84705466BE0AB
:105920001498DFF8C4C10090DCF800C05CF8347053
:1059300010A80FC8B84705465EE0DDE91401DFF89E
:10594000A8C1CDE90001DCF800C05CF8347010A8F3
:105950000FC8B84705464FE0DDE914121698DFF886
:1059600088C1CDE900120290DCF800C05CF8347008
:1059700010A80FC8B84705463EE0DDE91423DDE96D
:105980001610DFF864C1CDE90023CDE90210DCF880
:1059900000C05CF8347010A80FC8B84705462BE06B
:1059A000DDE91523DDE91710CDE90123CDE9031069
:1059B0001498DFF834C10090DCF800C05CF8347053
:1059C00010A80FC8B847054616E0DDE91623DDE943
:1059D0001810CDE90223CDE90410DDE91401DFF848
:1059E00008C1CDE90001DCF800C05CF8347010A8F3
:1059F0000FC8B847054600BF00BFFFF7B3FD9DF8CD
:105A0000180001280CD13848C07D20B9294637A09C
:105A100000F04EFB07E0294636A000F049FB02E00B
:105A200033A000F045FB304890F8EC0088B12E48D8
:105A3000D0F8F0000A21B0FBF1F201FB12072A486E
:105A4000D0F8F000B0FBF1F83A4641462CA000F047
:105A50002FFB00BF55E670B53148008800F40040C8
:105A6000002833D02E48057800202E4948551E487E
:105A700081682C48884704461CB91B49C868804780
:105A800021E02848FFF752FA0546012D00D02C46A8
:105A9000CCB1012C06D0022C08D0032C0AD0042C47
:105AA00010D10BE020A000F003FB0BE021A000F0E0
:105AB000FFFA07E022A000F0FBFA03E023A000F0C9
:105AC000F7FA00BF00BF00201549088070BD0146ED
:105AD0000868704701607047305825580000000082
