:020000040000FA
:1000000018100020750600009F4900007F060000C0
:100010008106000083060000850600000000000045
:100020000000000000000000000000008706000043
:1000300089060000000000008B0600008D0600000D
:100040006D3B0000773B0000813B00008B3B0000D4
:10005000953B0000BD3B0000C73B0000D13B0000CA
:10006000DB3B0000E53B0000EF3B0000F93B0000FC
:10007000033C00000D3C0000173C0000213C000048
:100080008F0600008F0600008F0600008F0600001C
:100090008F0600008F0600003F1A00008F06000048
:1000A0008F0600008F060000553500005F35000008
:1000B00069350000715100008F0600008F060000B6
:1000C0008F0600008F0600008F0600008F060000DC
:1000D0008F0600007B5100008F0600008F06000095
:1000E0008F0600008F0600008F0600008F060000BC
:1000F0008F060000AB1800008F060000B518000046
:100100008F060000BF1800008F060000C91800000D
:100110008F060000D31800008F060000DD180000D5
:100120008F060000E3210000F32100008F0600008D
:100130008F0600008F060000053000000F30000021
:10014000193000008F060000AD3F00008F06000050
:10015000C31B0000CD1B0000D71B0000E11B0000EB
:10016000455A00008F0600008F0600008F06000031
:10017000834500009F4500008F0600008F060000A9
:100180008F0600002757000031570000FF4700008E
:100190008F0600008B3700008F0600004B0F000019
:1001A000550F00005F0F0000690F0000730F000083
:1001B0008F0600008F0600008F0600008F060000EB
:1001C0008F0600008F0600008F0600008F060000DB
:1001D0008F0600008F0600008F0600008F060000CB
:1001E0008F0600008F0600008F0600008F060000BB
:10040000FFFFFFFFFFFFFFFFFFFFFFFFFEFFFFFFFD
:1004100000F002F800F03FF80AA090E8000C8244D7
:100420008344AAF10107DA4501D100F034F8AFF2B4
:10043000090EBAE80F0013F0010F18BFFB1A43F0C2
:1004400001031847A8810000E8810000103A24BF8A
:1004500078C878C1FAD8520724BF30C830C144BF29
:1004600004680C607047000000230024002500266B
:10047000103A28BF78C1FBD8520728BF30C148BF07
:100480000B607047642905F09985002070471FB5FF
:100490001FBD10B510BD05F0CFFE1146FFF7F7FFE9
:1004A00000F008F905F0EDFE03B4FFF7F2FF03BC1E
:1004B00005F0F4FEC0BA70474CF220506649C8817E
:1004C0004DF62810C8814FF4E97008804FF0FF30D6
:1004D0006249486406206249087000204870084656
:1004E000C07840F0E000C8705E485C494864002075
:1004F0005B490871487100BF5948807900F01000CD
:100500000028F9D000BF5648807900F00C00002880
:10051000F9D17047524A127802F0C002002A67D11E
:100520004F4A527902F04002002A51D14C4A1278C7
:1005300002F00402C2B94A4A127B02F001020AB96F
:10054000494801E04FF40040454A1278C2F3C20323
:1005500001229A40D1B2B0FBF1F0414A527802F048
:1005600030021AB1400901E04FF400403C4AD27811
:1005700002F0E00202F01F0343BB5211082A25D209
:10058000DFE802F004080C1014181C2000EB8002B5
:10059000D0011CE000EB8002100218E0C0EB00125A
:1005A000D00114E000EB8002500210E04FF43772EB
:1005B00050430CE04FF4B762504308E040F6950218
:1005C000504304E040F67132504300E000BF38E091
:1005D000234A127902F01F02511C234AB2FBF1F0A8
:1005E0001F4A527902F01F0202F11801484328E025
:1005F0001B4A127802F0C002402A11D1184A5278E0
:1006000002F0010212B94FF400401AE0144A127AC3
:10061000C2F3420301229A40144BB3FBF2F010E004
:100620000F4A127802F0C002802A09D10C4A127BCC
:1006300002F001020AB90C4803E04FF4004000E068
:100640007047064A526C012303EB1272B0FBF2F2C0
:10065000074B1A6000BFF3E700200540008004400C
:10066000004006400000130180F0FA0200093D003E
:100670000000FF1F0948804709480047FEE7FEE7E2
:10068000FEE7FEE7FEE7FEE7FEE7FEE7FEE7FEE742
:1006900004480549054A064B70470000B9040000AC
:1006A00011040000200CFF1F181000202010FF1F55
:1006B0001800002088B04FF00009CA46002404F05A
:1006C0005DF94FF4E13148F6E30001F046F800200F
:1006D000049001208DF8150003208DF816000020ED
:1006E0008DF814008DF817008DF818008DF819009A
:1006F0008DF81A00012004908DF8150003208DF864
:10070000160000208DF814008DF817008DF81800E1
:100710008DF819008DF81A0004A801F001FB9AA0C9
:1007200005F00CFC002004F093F8054629469AA039
:1007300005F004FC012004F08BF8054629469BA037
:1007400005F0FCFB05F060FB0C239CA20021084691
:1007500005F02BFB0C239EA20E21002005F025FBAB
:100760000C239FA21C21002005F01FFB0C2004235A
:1007700022462A210090242005F0CDFA0C200423E3
:1007800022462A210090002005F0C5FA002201210E
:10079000104601F08EFC00220121084601F089FC80
:1007A000A8E00021084601F02FFA002846D10021D8
:1007B000084601F099FC1FFA80F9484606F0ACF8AB
:1007C000834605F0FBFF8A4A8A4BCDE9000105F01C
:1007D000F7FE0022884BCDE9020105F099FD0546A0
:1007E000864A874B05F094FD074605F05FFD82467B
:1007F000504606F071F81FFA80F90C2001234A4692
:100800000E210090242005F086FA484606F084F870
:100810000546514606F060F982467A49504606F090
:100820008FF88246504606F057F805460C20032301
:100830002A460E210090302005F06DFA002101209B
:1008400001F0E2F9002840D10021012001F04CFC28
:100850001FFA80F9484606F05FF8834605F0AEFFC0
:10086000634A644BCDE9020105F0AAFE0746002267
:10087000654B05F0A5FE054605F018FD824650467D
:1008800006F02AF81FFA80F90C2001234A461C21A1
:100890000090242005F03FFA484606F03DF8054652
:1008A000514606F019F982465649504606F048F876
:1008B0008246504606F010F805460C2003232A46CF
:1008C0001C210090302005F026FA601C84B20C2018
:1008D000042322462A210090242005F01CFA42F22B
:1008E0000F70844200D1002405F0E8F84FF4FA704C
:1008F00004F048F855E710B504460021084601F019
:1009000083F920B90021084601F0EEFB10BD00BFBD
:10091000FCE710B504460021084601F075F920B93E
:100920000021012001F0E0FB10BD00BFFCE72DE934
:10093000F04107460C460025002608E03846FFF740
:10094000DAFF0544052004F01DF8701CC6B2A6426B
:10095000F4DBB5FBF4F0BDE8F0812DE9F04107468A
:100960000C460025002608E03846FFF7D2FF054474
:10097000052004F007F8701CC6B2A642F4DBB5FBF4
:10098000F4F0BDE8F081000048656C6C6F204B36D8
:1009900030210D0A00000000436F7265436C6F63E5
:1009A0006B3A2564487A0D0A0000000042757343D3
:1009B0006C6F636B3A2564487A0D0A002E2E2E4820
:1009C000454C4C4F20383845363037312E2E2E00CE
:1009D000564F4C543A20302E303030560000000034
:1009E000435552523A20302E303030410000000042
:1009F0004D33E7CC80660A3F0000344014AE47E137
:100A00007A14DE3F00007A440000F83F10B5FC4B3A
:100A10009B6BFC4C54F820402343F94CA363FA4BE6
:100A200053F8203053F8213023F4E063F64C54F8A7
:100A3000204044F82130F44B53F8203053F8213053
:100A40004FF4E06404EA02242343EF4C54F82040BE
:100A500044F8213010BD10B5E94B9B6BE94C54F8BC
:100A600020402343E64CA36322B1012A0FD0022A7F
:100A70003FD125E0E44B53F8203053F8213023F0E8
:100A80000203E14C54F8204044F8213032E0DE4BC0
:100A900053F8203053F8213043F00203DA4C54F875
:100AA000204044F82130D84B53F8203053F82130FF
:100AB00043F00103D44C54F8204044F8213019E0AD
:100AC000D14B53F8203053F8213043F00203CE4C81
:100AD00054F8204044F82130CB4B53F8203053F8E1
:100AE000213023F00103C84C54F8204044F8213051
:100AF00000E000BF00BF10BD10B5C14B9B6BC14CE7
:100B000054F820402343BE4CA36362B1BE4B53F85C
:100B1000203053F8213043F02003BB4C54F82040E0
:100B200044F821300BE0B84B53F8203053F8213013
:100B300023F02003B44C54F8204044F8213010BD79
:100B400010B5AF4B9B6BAF4C54F820402343AC4CDB
:100B5000A36362B1AC4B53F8203053F8213043F01B
:100B60001003A94C54F8204044F821300BE0A64B68
:100B700053F8203053F8213023F01003A24C54F8DE
:100B8000204044F8213010BD10B59D4B9B6B9D4C0F
:100B900054F8204023439A4CA363012A0BD19B4B6A
:100BA00053F820305B6901248C402343974C54F860
:100BB000204063610AE0954B53F820305B690124C3
:100BC0008C40A343914C54F82040636110BD10B594
:100BD00004466078052854D2DFE800F0031323337D
:100BE0004300217920780022FFF735FF2179207812
:100BF0000022FFF781FF217920780022FFF7C4FF50
:100C000040E0217920780222FFF725FF2179207822
:100C10000022FFF771FF217920780022FFF7B4FF4F
:100C200030E0217920780122FFF715FF2179207823
:100C30000022FFF761FF217920780022FFF7A4FF4F
:100C400020E0217920780122FFF705FF2179207823
:100C50000122FFF751FF217920780122FFF794FF4D
:100C600010E0217920780022FFF7F5FE2179207825
:100C70000022FFF741FF217920780122FFF784FF4E
:100C800000E000BF00BF217920780122FFF7BEFEFF
:100C900010BD7CB504460D461646E0B28DF8000046
:100CA0008DF8016001956846FFF791FFE0B27CBDC9
:100CB00010B5534B9B6B534C54F820402343504C7E
:100CC000A3635AB1514B53F820305B6801248C4028
:100CD00023434E4C54F8204063600AE04B4B53F8DA
:100CE00020309B6801248C402343484C54F820401A
:100CF000A36010BD454A52F82020526801238B4062
:100D00001A43424B53F820305A6070473F4A52F81A
:100D10002020926801238B401A433C4B53F820302B
:100D20009A6070470246394850F822004069C8402E
:100D300000F0010038B1354850F822000068C84082
:100D400000F001007047314850F822000069C840A7
:100D500000F00100F6E72D4A52F82020D268012366
:100D60008B401A43294B53F82030DA607047014614
:100D7000264850F8210000697047244A52F8202084
:100D8000116070472DE9F04104460D4616461F4696
:100D90001B48806B1B4951F824100843184988638D
:100DA000194850F8240050F8250020F47020164906
:100DB00051F8241041F8250067B91549085700F08B
:100DC0001F0201219140134A430942F8231000BF3A
:100DD000BDE8F081082E7DD2DFE806F0041E2B3836
:100DE000495A6B7D084850F8240050F8250040F41B
:100DF0008030054951F8241041F825007DE00000BD
:100E000000800440006C0000EC6B0000D86B000018
:100E1000146C000080E100E05E4850F8240050F8B7
:100E2000250040F400305B4951F8241041F82500BA
:100E300063E0584850F8240050F8250040F4403052
:100E4000544951F8241041F8250056E0514850F813
:100E5000240050F8250040F400204E4951F8241099
:100E600041F825004C49085700F088F845E049480A
:100E700050F8240050F8250040F41020454951F85E
:100E8000241041F825004449085700F077F834E071
:100E9000404850F8240050F8250040F420203D49F7
:100EA00051F8241041F825003B49085700F066F836
:100EB00023E0384850F8240050F8250040F4302052
:100EC000344951F8241041F825003349085700F0FF
:100ED00055F812E010E02F4850F8240050F8250093
:100EE00040F440202B4951F8241041F825002A49AC
:100EF000085700F043F800E000BF00BF00BF67E7FD
:100F0000264A926B264B53F820301A43234B9A63A0
:100F100011B1244A42F82010704770B504461D48AC
:100F200050F82400D0F8A0504FF0FF30194951F884
:100F30002410C1F8A0001B4850F8240020B1194823
:100F400050F824102846884770BD10B50020FFF7E0
:100F5000E4FF10BD10B50120FFF7DFFF10BD10B595
:100F60000220FFF7DAFF10BD10B50320FFF7D5FF11
:100F700010BD10B50420FFF7D0FF10BD00F01F0218
:100F8000012191404209920002F1E022C2F80011D1
:100F900070470000EC6B0000146C000000800440FF
:100FA000006C0000B400FF1F0146FE4850F821000D
:100FB000007CC0F30210FC4A52F82000704730B5A4
:100FC00003460C46F74850F82300007C00F08000F0
:100FD00050B100BF1846FFF7E7FFF24951F8231060
:100FE000097D8842F6D908E000BFEE4850F823009A
:100FF000007900F080000028F7D0EA4951F823106A
:10100000CC71C4F3002555B1E64850F8230080792F
:1010100040F04000E34951F82310887109E0E148AD
:1010200050F82300807920F04000DE4951F8231069
:10103000887130BD30B504460D46A1B2DB4800785A
:10104000FFF7BDFF204630BD10B502460023D5484E
:1010500050F82200007900F0200078B1D14850F813
:1010600022008079C309180208800888CD4C54F802
:101070002240E47920430880002010BD0120FCE7D5
:1010800018B5044600BF6946C8480078FFF7DCFF82
:101090000028F8D1BDF80000C0B218BD30B5054633
:1010A0000C4604E014F8011B2846FFF788FF20785F
:1010B0000028F7D130BDF0B504460D46B4FBF5F07D
:1010C00028B1B4FBF5F629463046FFF7F4FFB4FB30
:1010D000F5F005FB1047B6480068C15DB3480078DD
:1010E000FFF76DFFF0BD0FB470B5064606AD00BF4B
:1010F00008E01CB9002070BC5DF814FB21463046A6
:10110000FFF75DFF059810F8011B0C460590252997
:10111000EFD1059810F8014B0590642C01D06C2C90
:1011200003D10A212868FFF7C6FF6F2C01D0782C65
:1011300008D16F2C01D1082200E010221146286846
:10114000FFF7B9FF732C03D130462968FFF7A6FFDC
:101150002D1DCDE72DE9F0410446012003F078FB79
:101160000746207910B12079012803D1002003F02F
:101170006FFB07462760207900EB40008D4951F84E
:1011800020000068217901EB41018A4A02EB8101CC
:1011900049680843217901EB410152F821100860A8
:1011A0002079804951F82000C07820F00C00217986
:1011B0007C4A52F82110C870A16809012068B0FB70
:1011C000F1F085B220684001A1680901B0FBF1F09F
:1011D000202101FB1500C6B22079114651F82000EC
:1011E000007820F01F00217952F821100870207932
:1011F000114651F8200040780020217952F8211042
:1012000048702079114651F82000807A20F01F00A4
:10121000217952F8211088722079114651F8200066
:101220000078C5F304210843217952F82110087091
:10123000217952F821104D702079114651F8200083
:10124000807A06F01F010843217952F82110887234
:10125000207B20B102281AD0032848D12FE0207922
:10126000504951F82000807820F0020021794D4A41
:1012700052F8211088702079114651F820008078AA
:1012800020F01000217952F82110887030E0207988
:10129000444951F82000807840F002002179414A09
:1012A00052F8211088702079114651F8200080787A
:1012B00020F00100217952F82110887018E020797F
:1012C000384951F82000807840F002002179354AF1
:1012D00052F8211088702079114651F8200080784A
:1012E00040F00100217952F82110887000E000BF21
:1012F00000BF607B10B101287BD136E020792949FD
:1013000051F82000807800F00200B0B1207951F847
:101310002000807840F010002179224A52F82110F4
:1013200088702079114651F82000807A20F0200042
:10133000217952F82110887216E02079194951F864
:101340002000807820F010002179164A52F82110F0
:1013500088702079114651F82000807A20F0200012
:10136000217952F82110887244E020790D4951F812
:101370002000807800F0020098B1207951F8200018
:10138000807840F010002179064A52F821108870C8
:101390002079114651F82000807A40F02000217910
:1013A0000AE00DE01C6C0000846C00000400FF1FCC
:1013B0001000FF1F346C000052F82110887216E0F4
:1013C0002079FE4951F82000807840F01000217902
:1013D000FA4A52F8211088702079114651F82000FD
:1013E000807A20F02000217952F82110887201E0E3
:1013F000FFE700BF00BF2079F04951F82000407995
:1014000020F020002179ED4A52F82110487120790E
:10141000114651F82000C07840F00C00217952F8B4
:101420002110C870E648007810B12079E5490870AD
:101430000020E3490870BDE8F08100BFDF4951F8A2
:101440002010097901F080010029F7D0DB4951F81B
:101450002010C97821F00C01D84A52F82020D17010
:1014600000EB4001D84A52F82110096800EB400215
:10147000D54B03EB82025268914300EB400253F8D4
:10148000222011607047CF4A1070704751B1CB4A8B
:1014900052F82020127C42F08002C84B53F82030D2
:1014A0001A7409E0C54A52F82020127C22F080020A
:1014B000C24B53F820301A74704751B1BF4A52F8EA
:1014C0002020127C42F00802BC4B53F820301A74E2
:1014D00009E0BA4A52F82020127C22F00802B74BE9
:1014E00053F820301A7470470146B44850F8210070
:1014F000007C00F00700B54A52F820007047AF4A60
:1015000052F82020D27822F00802AC4B53F8203059
:10151000DA70AA4B53F82030D974A84A52F8202028
:10152000D27842F00802A54B53F82030DA707047A9
:10153000A24A52F82020D27822F004029F4B53F89E
:101540002030DA709D4B53F8203059759B4A52F881
:101550002020D27842F00402984B53F82030DA7001
:10156000704770B504460E46154604EB4400964994
:1015700051F82000006804EB4401934A02EB81011A
:101580004968084304EB440152F821100860052E15
:1015900073D2DFE806F003391E66940055B1874820
:1015A00050F82400C07840F08000844951F824109D
:1015B000C87009E0814850F82400C07820F080000D
:1015C0007E4951F82410C8708149085700F08BF902
:1015D00091E055B1794850F82400C07840F02000DF
:1015E000764951F82410C87009E0744850F8240076
:1015F000C07820F02000714951F82410C870744957
:10160000085700F070F976E055B16C4850F82400A6
:10161000C07840F08000694951F82410C87009E092
:10162000664850F82400C07820F08000634951F8E3
:101630002410C87055B1614850F82400C07A40F0B9
:1016400080005E4951F82410C87209E05B4850F8E8
:101650002400C07A20F08000584951F82410C87244
:1016600049E05DB1554850F82400C07840F02000B2
:10167000524951F82410C8700AE03BE04F4850F836
:101680002400C07820F020004C4951F82410C87084
:1016900055B14A4850F82400C07A40F0200047492C
:1016A00051F82410C87209E0444850F82400C07A68
:1016B00020F02000414951F82410C8721BE055B1B8
:1016C0003E4850F82400C07840F010003B4951F8E3
:1016D0002410C87009E0394850F82400C07820F080
:1016E0001000364951F82410C8703949085700F0E5
:1016F000FAF800E000BF00BF70BD10B500EB40027B
:10170000314B53F82220126800EB40032E4C04EBBF
:1017100083035B681A4300EB400354F823301A60DC
:1017200011B12C4A42F8201010BD10B500EB400258
:10173000254B53F82220126800EB4003224C04EBA7
:1017400083035B681A4300EB400354F823301A60AC
:1017500011B1214A42F8201010BD73B584B00E4675
:1017600004AC0296207800F007008DF804000020F9
:101770008DF80C008DF80D0000250DE02388C3F3D3
:101780008212C3F344232B44D9B22378C3F3C2009B
:10179000FFF73CF9681CC5B22068C0F38430A8424A
:1017A000ECDC6846FFF7D6FC217801F00700002149
:1017B000FFF76CFE217801F007000FE01C6C0000C1
:1017C0001400FF1F0400FF1F346C0000846C000035
:1017D0007C6C0000C800FF1FE000FF1F0021FFF726
:1017E0006CFE207800F0070006B070BD1CB5044602
:1017F000424850F82400007900F08000A8B13F482A
:1018000050F82400C07800F0800070B13C4850F8D7
:10181000240020B13A4850F8241001A88847BDF8A8
:101820000400364951F82410C871344850F8240097
:10183000007900F02000A8B1304850F82400C078AA
:1018400000F0200070B12D4850F82400C0790190BC
:101850002C4850F8240028B12A4850F82410BDF82C
:1018600004008847254850F82400007900F008005B
:1018700020B1224850F82400C07900901F4850F849
:101880002400007900F0100070B11C4850F82400CA
:10189000C07900901B4850F8240028B1194850F82E
:1018A00024104FF6FF7088471CBD10B50020FFF7CD
:1018B0009DFF10BD10B50120FFF798FF10BD10B5BA
:1018C0000220FFF793FF10BD10B50320FFF78EFF36
:1018D00010BD10B50420FFF789FF10BD10B505201D
:1018E000FFF784FF10BD00F01F0201219140420963
:1018F000920002F1E022C2F8001170471C6C000057
:10190000C800FF1FE000FF1F72B64CF22050534981
:10191000C8814DF62810C88162B670472DE9F041A4
:101920000446012002F094FF074640F2D3162078C7
:1019300010B1012806D102E026F0080603E046F0C7
:10194000080600E000BF00BFFFF7DEFFF8084FF415
:101950007A71B0FBF1F0616800FB01F5280C3F499A
:101960008880CD80F8084FF47A71B0FBF1F0A1685F
:1019700000FB01F5280C394908814D814FF4E060E6
:10198000C88246F001060E80BDE8F0813EB50446EF
:1019900000208DF800000194600802906846FFF76F
:1019A000BDFF3EBD10B50446FFF7AEFF012C06D1CA
:1019B0002A48008840F004002849088005E02748AC
:1019C000008820F0040025490880012C0AD1162047
:1019D000012181404209920002F1E022C2F8001187
:1019E00000BF08E01620012181401D4A430942F84A
:1019F000231000BF00BF10BD08B11A49086070472E
:101A00001648808A70474FF6FF70144988827047E5
:101A10001249098A08041149498A0843704772B675
:101A20004AF202610D4A91814BF28041918162B686
:101A3000002001E000BF401C1428FBD3704710B504
:101A40000648408840F40040044948800548006842
:101A500010B104490868804710BD0000002005400F
:101A600080E100E01800FF1F10B504465F48C06B1E
:101A700040F400005D49C863012002F0E9FE5C49C2
:101A80000860084600685B49B0FBF1F058490860FF
:101A90006068096848435849227801EB02110860E0
:101AA0005548217800EB0110806840F00101524850
:101AB000227800EB021081605048006820F002009C
:101AC0004E49086010BD7CB505460C468DF80050A7
:101AD00001946846FFF7C8FF7CBD30B50B4643490B
:101AE000C96B41F40001414CE1636AB1444C215699
:101AF00001F01F050124AC404D09AD0005F1E025C2
:101B0000C5F8004100BF00BF52B13B4901EB0011D5
:101B1000896841F00204384901EB00118C6009E04A
:101B2000354901EB0011896821F00204324901EBCB
:101B300000118C604AB9304901EB0011C96841F0CD
:101B400001042D4901EB0011CC6030BD2A4901EBA5
:101B50000011896821F00102274901EB00118A6018
:101B6000254901EB0011896841F00102224901EB8E
:101B700000118A60704701461F4800EB0110406861
:101B800070471A4AD26B42F40002184BDA6311B163
:101B90001C4A42F82010704710B50446164800EB66
:101BA0000410C06840F00101134800EB0410C1604C
:101BB000144850F8240018B1124951F82400804705
:101BC00010BD10B50020FFF7E7FF10BD10B50120D4
:101BD000FFF7E2FF10BD10B50220FFF7DDFF10BDDB
:101BE00010B50320FFF7D8FF10BD000000800440AF
:101BF0000000002040420F000071034000700340CD
:101C0000A06C0000F800FF1F0246F64850F82200C2
:101C100050F8210000F0800008B10020704701203A
:101C2000FCE730B50146EF4850F82100406A40F02B
:101C30004000EC4D55F821506862EA4850F8210008
:101C4000406A40F08000E74D55F82150686200245A
:101C500000E0641CE4488442FBD3E24850F82100D1
:101C6000406A00F0400008B1012030BD0022DD488C
:101C700050F82100C06C0244DA4850F82100806C12
:101C80000244D84850F82100406C0244D54850F82E
:101C90002100006C0244D34850F82100C06B02447C
:101CA000D04850F82100806B02444FF4004040EAD5
:101CB00052020023CB4850F82100C06E0344C948AB
:101CC00050F82100806E0344C64850F82100406E51
:101CD0000344C44850F82100006E0344C14850F842
:101CE0002100C06D0344BF4850F82100806D0344BB
:101CF0004FF4004040EA5303BA4850F82100406ACC
:101D000020F08000B74D55F821506862B54850F872
:101D10002100C262B34850F8210003630020A4E709
:101D200010B50446206800EB4000B04951F820008F
:101D30000068216801EB4101AC4A02EB810149686E
:101D40000843216801EB410152F821100860A549C0
:101D5000206851F82000806820F06000A14A2168C6
:101D600052F8211088601146206851F820008068E0
:101D70006179602202EA411108439A4A216852F8C7
:101D8000211088601146206851F82000806840F0DA
:101D90008000216852F8211088601146206851F8AF
:101DA0002000006A20F00300216852F82110086228
:101DB0001146206851F82000006AA17A01F0030161
:101DC0000843216852F8211008621146206851F832
:101DD0002000806820F00C00216852F821108860F3
:101DE0001146206851F820008068A1790C2202EA8F
:101DF000810108437B4A216852F8211088602079CC
:101E000001280BD11146206851F82000006A40F0EB
:101E10004000216852F8211008620BE071492068E7
:101E200051F82000006A00F040006E4A216852F824
:101E300021100862207A60B96A49206851F82000B0
:101E4000406A40F00800674A216852F82110486251
:101E50000BE06449206851F82000406A20F0080037
:101E6000604A216852F821104862607A052878D2C9
:101E7000DFE800F00310315478005A49206851F827
:101E80002000406A20F00400564A216852F82110D0
:101E900048628BE05349206851F82000406A40F0C6
:101EA0000400504A216852F8211048621146206807
:101EB00051F82000406A20F00300216852F82110F8
:101EC00048621146206851F82000406A216852F8A3
:101ED000211048626AE04349206851F82000406AB6
:101EE00040F004003F4A216852F821104862114630
:101EF000206851F82000406A20F00300216852F861
:101F0000211048621146206851F82000406A40F0D4
:101F10000100216852F82110486247E031492068E9
:101F200051F82000406A40F004002E4A216852F81F
:101F3000211048621146206851F82000406A20F0C4
:101F40000300216852F8211048621146206851F8B8
:101F50002000406A40F00200216852F821104862D7
:101F600024E022E01F49206851F82000406A40F038
:101F700004001C4A216852F821104862114620686A
:101F800051F82000406A20F00300216852F8211027
:101F900048621146206851F82000406A40F0030072
:101FA000216852F82110486200E000BF00BF20689D
:101FB000FFF737FE10BD51B10A4A52F82020126ACD
:101FC00042F04002074B53F820301A6209E0054AFC
:101FD00052F82020126A02F04002024B53F82030DF
:101FE0001A627047A46C0000A0860100AC6C00006F
:101FF00049B9844A52F82020D26822F01002814B5D
:1020000053F82030DA60012909D17E4A52F82020A5
:10201000D26842F010027B4B53F82030DA607047F0
:1020200073B584B00E4604AC207800F00700019030
:1020300001208DF809008DF80A6000208DF8080055
:102040008DF80B0001208DF80C0000208DF80D009C
:102050008DF80E00002518E02388C3F38212C3F325
:1020600044232B44D9B22378C3F3C200FEF7CEFC3D
:102070002288C2F344222A44D1B22278C2F3C20099
:102080000022FEF7E8FC681CC5B22068C0F384306B
:10209000A842E1DC01A8FFF743FE2268110E227876
:1020A00002F00700FFF7A4FF207800F0070006B059
:1020B00070BD10B5534B53F8203053F8223023F045
:1020C0001F03504C54F8204044F822304D4B53F835
:1020D000203053F8223001F01F042343494C54F8B8
:1020E000204044F8223010BD0246464850F82200F5
:1020F000103050F82100704771B56C46207800F020
:1021000007052068C0F3C446002231462846FFF781
:10211000D0FF00BF3B4850F82500006800F0800069
:102120000028F7D000212846FFF7DEFF78BD70B504
:10213000134633B1012B1CD0022B25D0032B48D1E1
:102140003CE0314C225602F01F050124AC402F4DDB
:10215000560945F8264000BF2A4A52F8202052F876
:10216000212022F04002274C54F8204044F821203E
:1021700030E0244A52F82020126A22F00402214C56
:1021800054F82040226225E01E4A52F8202052F8DE
:10219000212042F040021B4C54F8204044F82120FA
:1021A000194C225602F01F050124AC405509AD0020
:1021B00005F1E025C5F8004100BF0BE0114A52F8D7
:1021C0002020126A42F004020E4C54F82040226291
:1021D00000E000BF00BF70BD11B10D4A42F82010F1
:1021E000704710B50A48006810B10949086880476F
:1021F00010BD10B50648406810B1054948688047D1
:1022000010BD0000A46C0000C46C000080E100E080
:102210000400002030B500EB4003FE4C54F823309E
:102220001B6800EB4004FB4D05EB8404646823430A
:1022300000EB400455F8244023600023F64C54F88A
:1022400020402360F44B53F820305B6D43F00403CF
:10225000F14C54F8204063650023EF4C54F82040C3
:102260006360ED4C54F82040E364EB4B53F82030AE
:1022700099604FF0FF33E84C54F82040C4F8983090
:1022800030BD014609B1012901D100207047022962
:1022900001D0032901D10120F8E7042901D0052943
:1022A00001D10220F2E70320F0E72DE9F0410446D6
:1022B0000E4615461F464FF00008062D34D2DFE8C3
:1022C00005F0030B131B232B3046FFF7DAFFC10089
:1022D000012000FA01F828E03046FFF7D2FFC100E4
:1022E000022000FA01F820E03046FFF7CAFFC100E3
:1022F000042000FA01F818E03046FFF7C2FFC100E1
:10230000102000FA01F810E03046FFF7BAFFC100D4
:10231000202000FA01F808E03046FFF7B2FFC100C4
:10232000402000FA01F800E000BF00BF012F0AD1F1
:10233000B94850F82400406E40EA0800B64951F808
:102340002410486609E0B44850F82400406E20EAA2
:102350000800B14951F824104866BDE8F08110B575
:1023600012B1012A3AD11CE0AB4B53F820300C33A8
:1023700053F8313023F00404A74B53F820300C33CA
:1023800043F83140A44B53F820300C3353F831302C
:1023900043F00804A04B53F820300C3343F831408D
:1023A0001DE09D4B53F820300C3353F8313043F08F
:1023B0000404994B53F820300C3343F83140964BCA
:1023C00053F820300C3353F8313023F00804924B8B
:1023D00053F820300C3343F8314000E000BF00BF19
:1023E00010BD70B504460D461646062E7ED2DFE8B7
:1023F00006F0035BF7F8A2F5874850F82400406D1B
:1024000020F00100844951F824104865824850F8B2
:102410002400D0F8800020F001007F4951F82410FA
:10242000C1F880007C4850F82400006820F02000AB
:10243000794951F824100860774850F824000C308E
:1024400050F8350040F03001734850F824000C304B
:1024500040F83510002229462046FFF780FF002370
:102460001A4629462046FFF720FF0023012229466D
:102470002046FFF71AFF0023022229462046FFF7D5
:1024800014FF0023032229462046FFF70EFF0023F6
:10249000042229462046FFF708FF0023052229468B
:1024A0002046FFF702FFD4E15B4850F82400406D5E
:1024B00020F00100584951F824104865564850F85A
:1024C0002400D0F8800020F00100534951F8241076
:1024D000C1F88000504850F82400006840F0200007
:1024E0004D4951F824100860002300E0B0E11A467D
:1024F00029462046FFF7D9FE00230122294620461F
:10250000FFF7D3FE0023022229462046FFF7CDFE27
:102510000023032229462046FFF7C7FE002304229A
:1025200029462046FFF7C1FE002305222946204602
:10253000FFF7BBFE8DE1384850F82400D0F880004A
:1025400020F00100344951F82410C1F880003248CD
:1025500050F82400406D20F001002F4951F824105C
:1025600048652D4850F82400006820F020002A49D2
:1025700051F824100860284850F824000C3050F816
:10258000350020F03001244850F824000C3040F889
:10259000351000231A4629462046FFF786FE002301
:1025A000012229462046FFF780FE00230222294609
:1025B0002046FFF77AFE0023032229462046FFF734
:1025C00074FE0023042229462046FFF76EFE0023F6
:1025D000052229462046FFF768FE3AE1E9E000E0DF
:1025E00076E00D4850F82400D0F8800020F001007B
:1025F000094951F82410C1F88000074850F8240018
:10260000006820F02000044951F8241008600248B6
:1026100004E00000E06C0000C86C000050F82400EA
:10262000406D40F00400FE4951F824104865FC4814
:1026300050F82400406D40F00100F94951F8241091
:1026400048650123002229462046FFF72EFE01237C
:102650001A4629462046FFF728FE00230222294673
:102660002046FFF722FE0023032229462046FFF7DB
:102670001CFE0123042229462046FFF716FE0023F4
:10268000052229462046FFF710FEE54850F82400B1
:102690000C3050F8350040F03001E14850F824008B
:1026A0000C3040F83510002229462046FFF757FE2F
:1026B0000320DB4951F824108865D94850F82400DC
:1026C000806D40F08000D64951F824108865C0E044
:1026D000D34850F82400D0F8800020F00100D04901
:1026E00051F82410C1F88000CD4850F8240000684B
:1026F00020F02000CA4951F824100860C84850F85A
:102700002400406D40F00400C54951F8241048658C
:10271000C34850F82400406D40F00100C04951F812
:10272000241048650123002229462046FFF7BDFDFD
:102730000023012229462046FFF7B7FD002302228D
:1027400029462046FFF7B1FD0023032229462046F3
:10275000FFF7ABFD0123042229462046FFF7A5FD24
:102760000023052229462046FFF79FFDAC4850F87C
:1027700024000C3050F8350040F03001A84850F8E3
:1027800024000C3040F83510002229462046FFF77F
:10279000E6FD0320A24951F824108865A04850F8AE
:1027A0002400806D40F080009D4951F82410886518
:1027B0004FE09B4850F82400D0F8800040F0010022
:1027C000974951F82410C1F88000954850F824002A
:1027D000006820F02000924951F8241008609048C9
:1027E00050F82400406D40F004008D4951F8241049
:1027F00048658B4850F82400406D40F0010088493E
:1028000051F8241048650123002229462046FFF78D
:102810004CFD0023012229462046FFF746FD0023F8
:10282000022229462046FFF740FD002303222946C5
:102830002046FFF73AFD0023042229462046FFF7F1
:1028400034FD0023052229462046FFF72EFD00E037
:1028500000BF00BF70BDF7B50E4617466C46217825
:1028600001F0070004224FF6FF71FFF7D3FC217837
:1028700001F0070005220021FFF7B3FD16B1012E7C
:1028800048D123E0207800F00700654951F8200086
:10289000D0F8800020F02000217801F00701604A84
:1028A00052F82110C1F88000207800F0070011468E
:1028B00051F82000D0F8800020F01000217801F0BD
:1028C000070152F82110C1F8800024E0207800F0C0
:1028D0000700534951F82000D0F8800040F0200054
:1028E000217801F007014E4A52F82110C1F880000A
:1028F000207800F00700114651F82000D0F8800041
:1029000040F01000217801F0070152F82110C1F8C1
:10291000800000E000BF00BF17B1012F26D112E0F8
:10292000207800F007003E4951F82000D0F88000E0
:1029300020F00800217801F00701394A52F82110EF
:10294000C1F8800013E0207800F00700344951F806
:102950002000D0F8800040F00800217801F0070145
:102960002F4A52F82110C1F8800000E000BF00BFDC
:10297000002523E02388C3F38212C3F344232B44AE
:10298000D9B22378C3F3C200FEF740F82288C2F31D
:1029900044222A44D1B22278C2F3C2000122FEF7B7
:1029A0005AF82288C2F344222A44D1B22278C2F3D0
:1029B000C2000122FEF7A0F8681CC5B22068C0F36F
:1029C0008430A842D6DC207800F00700FEBD144B0E
:1029D00053F82030D3F88030C3F380031370104BCA
:1029E00053F820305B689BB20B60704700210C4AA3
:1029F00052F820205160704770B51346084C54F8C7
:102A00002040A4685C4342F21075B4FBF5F2044C1C
:102A100054F82040646E04F0013494B30C4601E095
:102A2000C86C000001EBD4756D10A1EB450585B1B4
:102A30000026F64C54F820400C344D1E04EBC5041F
:102A40006660F24C54F820400C3404EBC104626020
:102A50000FE00025ED4C54F820400C3404EBC10489
:102A60006560EA4C54F820400C344D1C04EBC5045E
:102A700062604FF0FF34E54D55F82050C5F898409E
:102A800007E0FFE7E14C54F820400C3404EBC104AC
:102A9000626070BD2DE9F74F82B08A4691460027EB
:102AA00002AC00250DE02388C3F38212C3F3442354
:102AB0002B44D9B22378C3F3C200FDF7A7FF681CEB
:102AC000C5B22068C0F38430A842ECDC4FF6FF703A
:102AD0000190012001F0BCFE8046B8FBF9F04FF6F2
:102AE000FF71B0FBF1F6B8FBF9F0B0FBF6F0B0F512
:102AF000803F00D3761C00251CE00120A840301A3E
:102B000003D50120A840801B02E00120A840301A14
:102B1000019988420CD22F460120A840301A03D5D3
:102B20000120A840801B02E00120A840301A01903B
:102B3000681CC5B2072DE0DB0120B840B04201DAC5
:102B4000781CC7B2072F00DD07270120B840B8FB6B
:102B5000F0F0B0FBF9F0A0F1010B217801F00700D3
:102B60003A465946FFF756FBBAF1000F06D0BAF1C4
:102B7000010F0DD0BAF1020F1ED113E02268C2F38B
:102B8000C441227802F007000022FFF72AFC14E07B
:102B90002268C2F3C441227802F007000222FFF744
:102BA00020FC0AE02268C2F3C441227802F0070048
:102BB0000322FFF716FC00E000BF00BF2268C2F34B
:102BC000C441227802F0070041F28832FFF714FF77
:102BD000207800F007008D4951F82000006820F0AF
:102BE0001800217801F00701884A52F82110086086
:102BF000207800F00700114651F82000006840F0EE
:102C00000800217801F0070152F8211008602078AF
:102C100000F00700114651F82000006820F007007E
:102C2000217801F0070152F821100860207800F0A7
:102C30000700114651F82000006807F0070108431B
:102C4000217801F0070152F821100860207800F087
:102C5000070005B0BDE8F08F73B50E466C46002541
:102C60000CE02388C3F38212C3F344232B44D9B26C
:102C70002378C3F3C200FDF7C9FE6D1C2068C0F3C2
:102C80008430A842EDD8217801F0070032464FF693
:102C9000FF71FFF7BFFA207800F007005B4951F899
:102CA0002000006820F01800217801F00701574A41
:102CB00052F821100860207800F00700114651F802
:102CC0002000006840F00800217801F0070152F868
:102CD00021100860207800F00700114651F820000C
:102CE000006820F00700217801F0070152F8211058
:102CF0000860207800F00700114651F820000068B5
:102D000040F00200217801F0070152F8211008601C
:102D10002268C2F3C441227802F007000422FFF7C0
:102D200060FB7CBD10B5394B53F820300C3353F8A1
:102D3000313023F00C04354B53F820300C3343F87A
:102D4000314022B1012A1FD0022A49D139E02F4B4C
:102D500053F820300C3353F8313023F008042B4B58
:102D600053F820300C3343F83140284B53F82030CF
:102D70000C3353F8313043F00404244B53F8203023
:102D80000C3343F831402CE0204B53F820300C3307
:102D900053F8313043F008041C4B53F820300C3307
:102DA00043F83140194B53F820300C3353F831308D
:102DB00023F00404154B53F820300C3343F8314012
:102DC0000FE0124B53F820300C3353F8313043F0FE
:102DD0000C040E4B53F820300C3343F8314000E024
:102DE00000BF00BF10BD0246084850F822000C305A
:102DF00000EBC10040687047044A52F8202051603F
:102E0000704711B1024A42F820107047C86C0000A8
:102E10000801FF1F30B511297ED2DFE801F009203B
:102E20002122232425262748494A4B4C4D4E4F004A
:102E300052B17C4B53F820301B6843F04003794C6F
:102E400054F82040236009E0764B53F820301B688B
:102E500023F04003734C54F8204023607EE000BF11
:102E600000BF00BF00BF00BF00BF00BF7AB16D4B05
:102E700053F820300C334C1E53F8343043F04005E7
:102E8000684B53F820300C3343F834500EE0654B58
:102E900053F820300C334C1E53F8343023F04005E7
:102EA000604B53F820300C3343F8345056E000BFE9
:102EB00000BF00BF00BF00BF00BF00BF92B1594BB1
:102EC00053F820400C34A1F1090354F8333043F097
:102ED0004005544B53F820400C34A1F1090344F849
:102EE000335011E04F4B53F820400C34A1F109034B
:102EF00054F8333023F040054A4B53F820400C344B
:102F0000A1F1090344F83350A2B1464B53F82040D5
:102F10000C34A1F1090300E01FE054F8333043F012
:102F20000105404B53F820400C34A1F1090344F84B
:102F3000335011E03B4B53F820400C34A1F109030E
:102F400054F8333023F00105364B53F820400C344D
:102F5000A1F1090344F8335000E000BF00BF324C38
:102F6000235603F01F050124AC405D09AD0005F1B7
:102F7000E025C5F8004100BF30BD0246294850F8A1
:102F800022000C3050F83100C0F3C010704770B50B
:102F90000446264850F8240018B1244951F824006A
:102FA0008047204850F82400006800F0C00048B175
:102FB0001C4850F82400006820F08000194951F89E
:102FC00024100860002517E0164850F824000C3043
:102FD00050F8350000F0C00068B1124850F82400E5
:102FE0000C3050F8350020F080010E4850F82400D5
:102FF0000C3040F835106D1C0D4850F82400A842E4
:10300000E2D870BD10B50020FFF7C1FF10BD10B5AC
:103010000120FFF7BCFF10BD10B50220FFF7B7FF7E
:1030200010BD0000C86C0000046D00000801FF1F07
:10303000D46C00002DE9FF4F82B004468C46DDF8C9
:1030400010B0FC4850F82400006800F0004018B9A7
:10305000002006B0BDE8F08F4FF0FF324FF00008BF
:103060004FF000090120019000200090002126E08F
:1030700000231FE0012518E0EF4850F82100DFF899
:10308000BCE35EF823E000FB0EFE05986843B0FB4E
:10309000FEF6B34508D3ABEB060A524504D95246B7
:1030A00088469946009601956D1C032D01D2002A91
:1030B000E2D15B1C102B01D2002ADBD1491C042970
:1030C00001D2002AD4D1DB4850F824000C3050F84B
:1030D0002C70DB4807400198401E58B14FF4403037
:1030E00000EA084040F0004009F00F0E40EA0E00F0
:1030F000074308E04FF4403000EA084009F00F0EA3
:1031000040EA0E000743CB4850F824000C3040F84A
:103110002C7000989DE72DE9F05F06460C46174697
:103120009846DDE90A9AC34850F8265005F10C008C
:1031300050F8240020F0F04105F10C0040F8241074
:1031400050F82400A8F101014FF0F04202EAC161F9
:10315000084305F10C0141F82400B9F1000F03D038
:10316000B9F1010F16D10AE005F10C0050F8240066
:1031700020F0807105F10C0040F824100BE005F1FF
:103180000C0050F8240040F0807105F10C0040F86C
:10319000241000E000BF00BF37B1012F17D0022F6D
:1031A00028D0032F4CD138E005F10C0050F8240052
:1031B00020F0806105F10C0040F8241050F8240044
:1031C00020F0007105F10C0040F8241039E005F101
:1031D0000C0050F8240020F0806105F10C0040F84C
:1031E000241050F8240040F0007105F10C0040F864
:1031F000241026E005F10C0050F8240040F0806116
:1032000005F10C0040F8241050F8240020F0007163
:1032100005F10C0040F8241013E005F10C0050F803
:10322000240040F0806105F10C0040F8241050F8B3
:10323000240040F0007105F10C0040F8241000E07B
:1032400000BF00BF012001F003FB8346E1B25B46F3
:1032500052463046FFF7EEFE05F10C0050F8240010
:103260007849084305F10C0141F82400BDE8F09FBE
:103270007CB505466F49286851F82040286800EB66
:103280004000714951F820000068296801EB4101B4
:103290006D4A02EB810149680843296801EB41014D
:1032A00052F821100860206840F001002060287961
:1032B00010B101280AD104E0206840F000402060ED
:1032C00005E0206820F00040206000E000BF00BF63
:1032D000206820F48040206020685C49084320601A
:1032E000A979A868CDE900106B79EA79E9682868BE
:1032F000FFF711FF4FF0FF30E062206820F001007F
:1033000020607CBDF7B584B00E46174604AC02972A
:103310008DF8076008208DF80500207800F0070080
:10332000009000208DF804008DF806000390002521
:103330000CE02388C3F38212C3F344232B44D9B295
:103340002378C3F3C200FDF761FB6D1C2068C0F356
:103350008430A842EDD86846FFF78AFF207800F055
:10336000070007B0F0BD334A52F82020126822F45B
:103370008042304B53F820301A6051B12D4A52F838
:103380002020126822F400522A4B53F820301A6091
:1033900009E0284A52F82020126842F40052254BD6
:1033A00053F820301A607047224A52F820201268E1
:1033B00022F480421F4B53F820301A6051B11D4A4D
:1033C00052F82020126822F480521A4B53F8203011
:1033D0001A6009E0174A52F82020126842F480521D
:1033E000144B53F820301A60704770B503460C46F2
:1033F000104951F8230024B1012C2BD0022C53D1B9
:103400003DE022B1016B41F00041016303E0016B3B
:1034100021F0004101630E4DE95601F01F06012520
:10342000B5404E09B60006F1E026C6F8005100BFCF
:103430003BE00000086D00003C6D00004C6D00009A
:10344000F0FFFC7F00115000146D0000013C1F00D4
:10345000386D000022B1016B41F00071016303E09F
:10346000016B21F00071016322B1016B41F08071A9
:10347000016303E0016B21F08071016315E022B16B
:10348000016B41F40031016303E0016B21F4003171
:10349000016322B1016B41F48031016303E0016BF0
:1034A00021F48031016300E000BF00BF70BD11B1A5
:1034B000304A42F820107047F0B50446059D4FF0A1
:1034C000004000EAC5704FF0E04606EA017630435E
:1034D00001269E404FF47C1707EA0646304396B219
:1034E0003043254E56F824607063234850F824007A
:1034F000006B00F0004090B900BF1F4850F8240056
:10350000C06A00F000400028F7D01B4850F82400A3
:10351000C06A40F00040184E56F82460F062164829
:1035200050F82400806B80B2F0BD10B504461248FC
:1035300050F82400C06A40F000400F4951F82410B0
:10354000C8620C4850F8240018B10A4951F8240008
:10355000804710BD10B50020FFF7E7FF10BD10B584
:103560000120FFF7E2FF10BD10B50220FFF7DDFFDD
:1035700010BD00001401FF1F086D00008A49096892
:103580000968894A52681143874A1268116000210C
:10359000864A1160516091601146096821F001016D
:1035A00011601146096821F0040111601146096893
:1035B00021F00201116005215160018891601146DE
:1035C000096841F00101116070477749096809688D
:1035D000754A52681143744A126811600021734A97
:1035E0001160516091601146096821F0010111607C
:1035F0001146096821F0040111601146096841F083
:10360000020111600521516001889160817821B12A
:10361000012907D0022913D10BE064490968634AE4
:1036200011600EE06149096841F010015F4A1160C4
:1036300007E05E49096841F020015C4A116000E042
:1036400000BF00BFC17811B101290ED106E0574972
:10365000096821F00801554A116007E053490968DB
:1036600041F00801514A116000E000BF00BF4F491E
:10367000096841F001014D4A1160704710B50246DA
:10368000494800680068484B5B681843464B1B6814
:10369000186071B1464B93F9000000F01F0401233C
:1036A000A3404409A40004F1E024C4F8003100BFA1
:1036B00000BF72B931B13D48006840F040003B4B5B
:1036C000186005E03948006820F04000374B18606A
:1036D00000E000BF00BF10BD334909680968324AE5
:1036E00052681143304A1268116008B131490860CC
:1036F00070472E490C3141F2342008602B48C068D5
:1037000080B2704731B582B002AC4FF6FF70ADF8B1
:1037100004002068C0F3C440012802D0022808D168
:1037200003E001208DF8060004E002208DF8060079
:1037300000E000BF00BF00208DF8070000250CE06E
:103740002388C3F38212C3F344232B44D9B22378D2
:10375000C3F3C200FDF75AF96D1C2068C0F3843032
:10376000A842EDD801A8FFF730FF207800F007004D
:103770003EBD0E48006820F001000C490860084674
:10378000006840F001000860704710B50748006805
:1037900040F08000054908600648006810B10549FE
:1037A0000868804710BD0000906D000000000440D4
:1037B0008C6D00001C00FF1F10B50146F84AD26B4B
:1037C00042F00202F64BDA631A46126C42F0020231
:1037D0001A640878F34AD268012383409A43F14B74
:1037E000DA604A7802F03F02EF4B1B681A548A797C
:1037F00012B1012A12D108E0EB4A1268125C22F0E1
:103800004002E94B1B681A5409E0E74A1268125C4F
:1038100042F04002E44B1B681A5400E000BF00BFB6
:103820000023E24A02EB4012D380E04A02EB40124E
:1038300093834A88DD4B03EB40139A608A88C2F376
:103840000E03DA4A02EB4012D3828A88C2F30E03D7
:10385000D64A02EB4012D383D44A02EB4012CB6823
:1038600013600A8993B2D14A02EB40129380CF4A87
:1038700002EB4012D3880A7C4FF4E06404EA02228F
:103880001343CA4A02EB4012D380C84A02EB4012EB
:10389000D2880B7E4FF4784404EAC3231A43C34B07
:1038A00003EB4013DA80C14B03EB40134A69DA6043
:1038B000BE4A02EB40120B6A13618A8B93B2BB4A79
:1038C00002EB40129382B94A02EB4012D28891F87F
:1038D000243003F007031A43B44B03EB4013DA80A0
:1038E000B24A02EB4012D38891F82C20F82404EA63
:1038F000C2021343AD4A02EB4012D380AB4B03EB41
:1039000040138A6A9A61A94A02EB4012928B42F0F4
:103910000803A64A02EB40129383A34A1268125C82
:1039200042F08002A04B1B681A5410BD20220021D7
:103930000FE0012088409E4B1B68184040B90120D1
:1039400088409B4B1B681843994B1860084670478A
:10395000491C9142EDD30020F9E701218140944AAE
:1039600012688A4392490A60704701468F4800EB0B
:103970004110C08AC0F30E0070478C4A02EB40121F
:10398000D28AD30BDB03894A02EB4012D382874AE7
:1039900002EB4012D28AC1F30E031A43834B03EBAE
:1039A0004013DA82704700F00F017E4AD1767047EB
:1039B00000F00F017B4A9176704751B17B4A02EBD0
:1039C0004012928B42F00803784A02EB4012938334
:1039D00009E0764A02EB4012928B22F00803734A08
:1039E00002EB40129383704710B50AB36F4B03EBA1
:1039F00040139B8B43F020046C4B03EB40139C83E0
:103A00006A4B03EB40139B8B23F47064674B03EB0F
:103A100040139C83654B03EB40139B8B4FF4706406
:103A200004EA01242343614C04EB4014A38309E01E
:103A30005E4B03EB40139B8B23F020045B4B03EBAB
:103A400040139C8310BD30B50B466AB1594C2156CA
:103A500001F01F050124AC404D09AD0005F1E02542
:103A6000C5F8004100BF00BF13B1012B2ED116E0F5
:103A700052B14E4901EB4011898B41F004044B498E
:103A800001EB40118C8309E0484901EB4011898B1F
:103A900021F00404454901EB40118C8317E052B139
:103AA000424901EB4011898B41F002043F4901EB8F
:103AB00040118C8309E03D4901EB4011898B21F0D5
:103AC00002043A4901EB40118C8300E000BF00BFC3
:103AD00030BD11B1384A42F82010704701463148D4
:103AE000C06801228A40104070B1304800EB41109C
:103AF000808B00F0800028B101F00F00294A107778
:103B0000002070470120FCE701F00F00254A1077E4
:103B10000020F6E7254A02EB40121161704701468A
:103B2000224800EB411000697047204A02EB401226
:103B30001160704701461D4800EB41100068704756
:103B40001848006840F4003016490860704710B506
:103B5000044604F00F001349C877174850F82400B2
:103B600018B1154951F82400804710BD10B5002048
:103B7000FFF7EDFF10BD10B50120FFF7E8FF10BD06
:103B800010B50220FFF7E3FF10BD10B50320FFF7CB
:103B9000DEFF10BD10B50420FFF7D9FF10BD0000F7
:103BA00000800440008000409C6D000000900040B8
:103BB0000C000020A06D00002001FF1F10B50520A3
:103BC000FFF7C5FF10BD10B50620FFF7C0FF10BD01
:103BD00010B50720FFF7BBFF10BD10B50820FFF799
:103BE000B6FF10BD10B50920FFF7B1FF10BD10B52D
:103BF0000A20FFF7ACFF10BD10B50B20FFF7A7FFA1
:103C000010BD10B50C20FFF7A2FF10BD10B50D20A0
:103C1000FFF79DFF10BD10B50E20FFF798FF10BDF8
:103C200010B50F20FFF793FF10BD0000F0B503465D
:103C30000D46591E002604E0F44850F826000244C0
:103C4000761CAE42F8DB022D10DD4FF4C87093FBFA
:103C5000F0F400FB143040B103F0030030B96420ED
:103C600093FBF0F400FB143000B1521C642091FB74
:103C7000F0F00C46CF1701EB977701EBA707381A46
:103C80004FF4C87791FBF7F738441044072790FBAF
:103C9000F7FC07FB1C00F0BD10B50288A2F2B2725F
:103CA00040F26D135A430A600288D31702EB9373F4
:103CB0009B10A3F5F6730C6823440B604388D44C27
:103CC00034F813300A681A440A6083880A681A4470
:103CD0000A60027802F003022AB94288022A02D856
:103CE0000A68521E0A60CB4B0A685A43C388C3EB6A
:103CF0004314C4EB032302EB03120389C3EB031346
:103D000002EB8302837A1A440A600A68521C0A6032
:103D100010BDF0B505462A68BE4FB2FBF7F3B2FB03
:103D2000F7FC07FB1C224FF46167B2FBF7F7CF806B
:103D30004FF46167B2FBF7FC07FB1C223C27B2FB88
:103D4000F7F70F813C27B2FBF7FC07FB1C278F72AC
:103D500040F2B2770F8040F26D160CE09B1B0F888B
:103D60007F1C0F800F7807F0030717B140F26D1624
:103D700001E04FF4B776B342F0D80F7807F00307AD
:103D80000FB1A54C00E0A54C012007E0275C9F4245
:103D900001D3488004E0275CDB1B401C0C28F5D9CC
:103DA00000BF8B80F0BD38B5044604B938BD9C48CF
:103DB0000068009021466846FFF7ABFF00BFF5E7BB
:103DC0009748006808B1012070470020FCE738B52B
:103DD000044604B938BD69462046FFF75DFF0098E8
:103DE000401E8F49886000BFF4E78D4AD26822F4F4
:103DF0007F428B4BDA601A46D26822F0FF02DA600B
:103E00001A46D2684FF47F4303EA00231A43844BD7
:103E1000DA601A46D268CBB21A43814BDA60704737
:103E200008B58049C96B41F000517E4AD1637C4995
:103E3000496921F010017A4A51611146096921F45A
:103E4000807111610178012906D002290BD0032964
:103E500010D004291CD114E07149096941F40051C2
:103E60006F4A116115E06E49096941F480516C4A4D
:103E700011610EE06A49096941F40061684A116103
:103E800007E06749096941F48061654A116100E012
:103E900000BF00BF6249096941F48071604A116145
:103EA0000021009102E00099491C00910099B1F5B0
:103EB000C02FF8D35A49496941F01001584A51615D
:103EC00008BD08B5012000906846FFF7A9FF08BDAE
:103ED00053480068704752488068704738B50446B8
:103EE00004B938BD69462046FFF7D6FE4C48406904
:103EF00020F010004A49486100980860084640696F
:103F000040F01000486100BFEBE74549496921F0E6
:103F10001001434A516111460860496941F010019E
:103F20005161704770B505460C4614B1422000F04F
:103F300061F89DB1012D02D0022D30D11DE034B1C8
:103F40003748C06940F002003549C86105E034488F
:103F5000C06920F002003249C86121E034B1304824
:103F6000C06940F004002E49C86105E02C48C069D2
:103F700020F004002A49C86112E0432000F03AF81A
:103F800034B12748C06940F010002549C86105E0F8
:103F90002348C06920F010002149C86100E000BF3B
:103FA00000BF70BD08B120490860704710B51E48B9
:103FB000006810B11C49086880471948C06900F0C2
:103FC000020040B11648406900F0020018B11448E0
:103FD0000068134908601248C06900F0040040B14D
:103FE0000F48406900F0040018B10D4880680C4982
:103FF000886010BD00F01F0201219140420992002B
:1040000002F1E022C2F80011704700002400FF1FF7
:10401000CA6D000080510100B06D0000BD6D000050
:1040200000D00340008004402000FF1FF94900E059
:10403000491C01F00F02002AFAD1F74A1160F74932
:1040400000E0491C01F00F02002AFAD1F44A116085
:10405000002011E00022F04B1B6803EB40135A8054
:10406000ED4B1B6803EB40131A801822EA4B1B68C8
:1040700003EB40139A60401C0028EBD0E94900E0B4
:10408000491C01F00F02002AFAD1002021E0802211
:10409000E34B1B6803EB40131A800022E04B1B68C4
:1040A00003EB40135A800ABADD4B1B6803EB401345
:1040B0005A6001F2EE510022D94B1B6803EB40130A
:1040C0001A614FF40042D64B1B6803EB40139A6011
:1040D000401C0028DBD0D04A1268128842F020022F
:1040E000CD4B1B681A80CE4A1268128842F020021B
:1040F000CB4B1B681A80704770B503464FF0FF31F9
:10410000002212E09C5C00250CE004F0010001F0AC
:104110000106704018B14908C348414000E0490811
:1041200064106D1C082DF0DB521C062AEADB880E99
:1041300070BD70B5044620780006617840EA014001
:10414000A17840EA0120E1780843B8490860207965
:104150000006617940EA0140B449E439C1F8E80059
:104160002046FFF7C9FF0546202D0CDBAF48343051
:104170000068A5F1200101228A401043AB49E439CF
:10418000C1F8180109E0A948383000680121A940A8
:104190000843A649E439C1F81C0170BD70B5A448B4
:1041A000C06A40F00100A249C8620020A14908602D
:1041B000012000F04DFB05464FF47A70B5FBF0F09E
:1041C0004FF47A71B0FBF1F460000521B0FBF1F01F
:1041D000401C7E2101EA40009449E439486470BDE6
:1041E00070B503460C460020904DE43D6D6845F4E3
:1041F00000058E4EE43E75604FF0786505EAC355C4
:1042000045F0A0454FF4F80606EA8446354345F4E8
:10421000003596B23543854EE43E3564002107E013
:10422000824DE43D6D6805F4000505B103E0491CCD
:10423000814DA942F4D300BF01B901207B4DE43D7B
:104240006D6845F40005794EE43E756070BD70B54B
:1042500003460C460020754DE43D6D6845F40005AD
:10426000724EE43E75604FF0786505EAC35545F03F
:10427000C0454FF4F80606EA8446354345F4003558
:104280006A4EE43E3564002107E0684DE43D6D6808
:1042900005F4000505B103E0491C674DA942F4D3BC
:1042A00000BF01B90120614DE43D2D6C15805F4DCB
:1042B000E43D6D6845F400055C4EE43E756070BDFC
:1042C00038B504465A48C06A40F001005849C862EF
:1042D00000205849086001205449E4394862002010
:1042E000009005E000BFBDF80000401C80B20090C7
:1042F000BDF800006428F5DBFFF750FFFFF796FEDE
:104300004E48407820F004004C4948704C480078F2
:1043100040F080004A49087000200090434938313D
:1043200008604249E439C1F8180140494031086049
:10433000091F08602068FFF7FCFE42483B496039CE
:1043400008600020394920390860607980B1374819
:104350006038006840F002003449E439C1F8840054
:104360000846D0F8C40020F00400C1F8C4000FE0F3
:104370002E486038006820F002002C49E439C1F86A
:1043800084000846D0F8C40040F00400C1F8C4001E
:10439000207948B125486038006840F4007023490E
:1043A000E439C1F8840008E020486038006820F44F
:1043B00000701E49E439C1F884001C48A43000682C
:1043C00043F6F07108431949E439C1F888011448EB
:1043D0000068C1F88001104800681449A0310860E5
:1043E0004FF0FF301149E43948600846406A40F018
:1043F000020048624FF08070086138BD70B5044615
:104400000D4605480068008800F08000E0B10420F7
:1044100070BD00006001FF1F5400FF1F9001FF1FCF
:104420005800FF1FC001FF1F2083B8EDE4000C40BF
:104430000080044000D00040FFFF01000040064023
:10444000005006400441EE0520BA61490968486001
:104450002846FCF72FF85E490968488000205C492F
:104460000968086160205A4909688860AC20584989
:10447000096808804FF0807056494861C000486064
:1044800000BF5448406800F000600028F9D00020C8
:1044900070BD10B550480068008800F0800028B951
:1044A0004D4909684888FCF705F810BD0020FCE775
:1044B00070B50546002448480068008800F0800078
:1044C000D8B9454909684888FBF7F4FF84B24248E7
:1044D0000068406801BA2246284601F0ABFD3E481C
:1044E0000068008840F080003B49096808804FF070
:1044F000807038490861204670BD0020FCE710B587
:10450000044634B1012C0BD0022C10D0032C1ED148
:1045100015E03048806820F000602E49886017E080
:104520002C48806820F000702A49886010E04C20F8
:1045300000F043F84FF000602649886008E04D2005
:1045400000F03BF84FF000702249886000E000BFA7
:1045500000BF10BD08B121490860704708B120496B
:10456000086070471B48406800F0006038B1194887
:10457000406840F000601749486001207047002003
:10458000FCE710B51348406840F0006011494860EE
:104590001248006810B111490868804710BD10B575
:1045A0000C48406840F000700A4948600C480068B8
:1045B00010B10B490868804710BD00F01F020121AF
:1045C00091404209920002F1E022C2F800117047C6
:1045D0005400FF1F00000C405800FF1F5C00FF1F2D
:1045E0006000FF1F0146954850F821000088704781
:1045F00010B504460B469248006840F08000904990
:1046000008600846006820F002000860084600685C
:1046100040F48070086000BF8948006800F40040E2
:104620000028F9D02046FFF7DDFF0246D11AD01846
:1046300061F31F40834908608148006820F08000D2
:104640007F49086010BD10B504467F48806B40F07C
:1046500020007D4988630020794908600846006889
:1046600021894FF4780202EAC14108437449086085
:104670000846006861794FF4E02202EA01410843EC
:104680006F4908600020486008464068217C4FF070
:10469000706202EA0161084369494860084640685F
:1046A000617C121202EA01410843654948600846EC
:1046B000406848600846806822780121914041F0B6
:1046C000010108435E498860E1682068FFF790FFB8
:1046D000207910B101280ED106E05948006820F079
:1046E00002005749086007E05548006840F00200A2
:1046F0005349086000E000BF00BF5148006840F423
:1047000080404F4908600846006840F40040086057
:104710000846006840F4005008600846006840F40D
:10472000805008600846006840F08000086010BDB6
:1047300031B586B006AC00250CE02388C3F38212A5
:10474000C3F344232B44D9B22378C3F3C200FCF74C
:104750005DF96D1C2068C0F38430A842EDD8206854
:10476000C0F3C440019001208DF808004FF42F7071
:1047700004900220039001208DF809000F208DF88D
:1047800015008DF8140001A8FFF75DFF207800F0F8
:10479000070007B030BD10B5044624B1012C09D084
:1047A000022C25D115E02648006820F0400024495D
:1047B00008601EE02248006840F040002049086080
:1047C0000846006820F010000860532000F02AF826
:1047D0000FE01B48006840F0400019490860084697
:1047E000006840F010000860532000F01BF800E063
:1047F00000BF00BF10BD08B114490860704710B574
:104800000F48006840F480400D4908600846006881
:1048100040F4004008600D48006810B10B4908687A
:10482000804710BD00F01F02012191404209920013
:1048300002F1E022C2F80011704700006800FF1F7B
:104840000050044020510440008004406400FF1FD9
:1048500070B505460024FBF75DFE5348406C01210E
:1048600001EB10705149096800FB01F435B1012DCD
:104870000CD0032D12D0042D19D117E04A48406CFA
:10488000012101EB1070B4FBF0F412E04648406CDB
:10489000C0F30360401CB4FBF0F40AE04248406CF3
:1048A000C0F30340401CB4FBF0F402E001E000243C
:1048B00000BF00BF204670BD3D49097841F0FF01AF
:1048C0003B4A11703B49096841F00401394A1160C3
:1048D00028B11146096841F00201116005E035492F
:1048E000096821F00201334A116030BF7047014668
:1048F000086870472C49086EC96D48402A49896D7F
:104900004840704703B5684602680A600CBD2948F4
:10491000EC30006840F080702649EC310860264891
:10492000006840F0010024490860704730B5014636
:10493000214C62681D4C2468204DB4FBF5F404FB47
:1049400001F3D018904205D900BF1B4C6468844223
:10495000FBD309E000BF184C64688442FBD800BF59
:10496000154C64688442FBD330BD10B504464FF447
:104970007A7104FB01F0FFF7D9FF10BD00B5FFF716
:10498000C6FF00BD10B504462046FFF7EEFF10BD80
:1049900010B504462046FFF7C9FF10BD704710B59B
:1049A000FFF7FCFF10BD0000008004400000FF1F67
:1049B00000E0074010ED00E0001000E040420F0072
:1049C0002DE9F34F81B005460120FFF741FF029921
:1049D000B0FBF1F00090FF2452E001264DE00127EA
:1049E00048E04FF0010841E0F01900F1020908F138
:1049F000010A09EB0A0000F1010B601C0BFB00F03F
:104A00000099401A04D5611C00980BFB110004E0CA
:104A1000601C0BFB00F00099401A022824DA0AF10E
:104A20000800814520D2801F48451DD968684FF68F
:104A3000F8710840686006F0070040F400004FF489
:104A4000601101EAC74108434FF4E02101EA08413F
:104A500008434FF07F4101EA046108436968084355
:104A600068600120BDE8FE8F08F10108B8F1080F69
:104A7000BAD37F1C082FB4D3761C082EAFD3641E84
:104A8000002CAAD10020EDE710B50346B2F5006F67
:104A900019D322F06044FE4850F82300803000EB28
:104AA00001104460FA4850F82300803000EB0110F8
:104AB000006840F4C004F64850F82300803000EB52
:104AC0000110046019E0F34800EA8244F04850F80D
:104AD0002300803000EB01104460ED4850F82300C3
:104AE000803000EB0110006820F4C004E84850F862
:104AF0002300803000EB01100460002010BD10B5D1
:104B0000E34B53F820301B6843F0A043E04C54F8CB
:104B10002040236000BFDE4B53F820301B6803F0B9
:104B20008073002BF7D0B2F5006F09D3C2F31104E4
:104B3000D74B53F8203003F5086343F8214009E0D0
:104B4000D44B03EA8244D24B53F8203003F5086378
:104B500043F82140CE4B53F820301B6823F0A0438C
:104B6000CB4C54F82040236000BFC94B53F8203091
:104B70001B6803F08073002BF7D110BD70B504469D
:104B80000D461646324629462046FFF77DFFC048AF
:104B900050F82400803000EB0510006820F07061B0
:104BA000BB4850F82400803000EB05100160B84885
:104BB00050F82400803000EB0510006840F0806160
:104BC000B34850F82400803000EB0510016070BD40
:104BD00070B50646306800EB4000AF4951F8200040
:104BE0000068316801EB4101AB4A02EB8101496881
:104BF0000843316801EB410152F821100860A449D3
:104C0000306851F82040606840F4005060602068CF
:104C100020F000402060206840F00070206000BF5D
:104C2000206800F000700028FAD1206840F0A04011
:104C3000206000BF206800F080700028FAD00025B6
:104C40001DE0002104F1800000EB0510016004F17B
:104C5000800000EB0510416004F1800000EB0510BE
:104C6000816004F1800000EB0510C16004F508606C
:104C700040F825100020A062401E20636D1C102DFE
:104C8000DFD3206840F480302060206820F440703A
:104C9000206020467168FFF793FE206840F40030E2
:104CA0002060206820F0A040206000BF206800F055
:104CB00080700028FAD100BF206800F00060002852
:104CC000FAD170BD73B582B00E4602AC207800F008
:104CD0000700009001966846FFF77AFF00250CE078
:104CE0002388C3F38212C3F344232B44D9B223781D
:104CF000C3F3C200FBF78AFE6D1C2068C0F384304A
:104D0000A842EDD8207800F0070004B070BD02463C
:104D10000B465F4850F82200803000EB031000681B
:104D2000C0F30361082902D009B1042901D101208F
:104D300070470020FCE72DE9FC4780460C46924670
:104D40001F46DDF82890002000900190504850F850
:104D5000285000BF21464046FFF7D9FF0028F9D070
:104D6000002613E0042E08D2B85DC6F10301C90085
:104D7000884000990843009007E0B85DC6F107013C
:104D8000C9008840019908430190761C4E45E9D33B
:104D900005F1800000EB04100099816005F18000AE
:104DA00000EB04100199C16005F1800000EB0410D4
:104DB000006820F4702105F1800000EB0410016010
:104DC00005F1800000EB041000684FF4702101EA47
:104DD0000941084305F1800101EB0411086005F168
:104DE000800000EB0410006820F4801105F18000C1
:104DF00000EB04100160524621464046FFF744FE96
:104E000005F1800000EB0410006820F0706105F1EE
:104E1000800000EB0410016005F1800000EB04103D
:104E2000006840F0406105F1800000EB0410016073
:104E30000020BDE8FC872DE9F04706460C46904669
:104E40001F46134850F8265021463046FFF75FFFB3
:104E50008146B9F1000F02D00220BDE8F08705F1CC
:104E6000800000EB0410006820F4702105F1800040
:104E700000EB0410016005F1800000EB04100068F5
:104E80004FF4702101EA0741084305F1800105E074
:104E9000E46D00000000FC1FEC6D000001EB04114C
:104EA000086005F1800000EB0410006840F48011F8
:104EB00005F1800000EB04100160424621463046B7
:104EC000FFF7E2FD05F1800000EB0410006820F020
:104ED000706105F1800000EB0410016005F18000B5
:104EE00000EB0410006840F0406105F1800000EB29
:104EF000041001600020B0E711B1A84A42F8201068
:104F0000704770B504460D46164636B1012E20D0C6
:104F1000022E0ED0032E38D127E0A14850F82400ED
:104F2000806A0121A94088439D4951F82410886274
:104F30002CE09B4850F82400806A0121A9400843D6
:104F4000974951F8241088629649085700F01AF9D9
:104F50001CE0934850F82400806A0121A94088434E
:104F60008F4951F82410886210E08D4850F82400D1
:104F7000806A0121A9400843894951F824108862B8
:104F80008849085700F0FEF800E000BF00BF70BD80
:104F9000FCB504460D46079E002000900190804815
:104FA00050F82400803000EB05100068C0F3036760
:104FB00007F0010008B10120FCBD794850F8240039
:104FC000006B4FF0010C0CFA05FC00EA0C00002805
:104FD0004AD00120A840DFF8C8C15CF824C0CCF852
:104FE00030006F4850F82400803000EB0510006856
:104FF000C0F3034030706A4850F82400803000EB62
:10500000051080680090664850F82400803000EB5E
:105010000510C0680190002113E0042908D2C1F1F5
:10502000030C4FEACC0C009820FA0CF0585407E01F
:10503000C1F1070C4FEACC0C019820FA0CF058543F
:10504000491C30788842E8D8554850F82400803010
:1050500000EB0510406820F060401060504850F8A8
:10506000240081680020A7E74D4850F8240081689B
:105070000120A1E77CB504460D4600200090019078
:10508000474850F82400D0F88000C0F3034018705F
:10509000434850F82400D0F888000090404850F869
:1050A0002400D0F88C00019000210FE0042906D2E2
:1050B000C1F10306F6000098F040505405E0C1F13C
:1050C0000706F6000198F0405054491C18788842B1
:1050D000ECD8334850F82400D0F8840020F0604029
:1050E00028602F4850F82400816820202C4E56F864
:1050F0002460306300207CBD0146294850F821001F
:105100000068C0F3407070470146254A52F82100FC
:10511000026842F0A042026000BF026802F08072A2
:10512000002AFAD0026842F000520260426B22F07C
:1051300070624263426B4263026822F0A0420260E6
:1051400000BF026802F08072002AFAD100BF026834
:1051500002F00062002AFAD1704710B504460F48E9
:1051600050F8240018B10D4951F82400804710BDB3
:1051700010B50020FFF7F1FF10BD10B50120FFF7BB
:10518000ECFF10BD00F01F02012191404209920086
:1051900002F1E022C2F8001170470000A800FF1FD2
:1051A000E46D0000046E0000FE49C96A41F48051BC
:1051B000FC4AD1621146C96A41F40051D1620179B9
:1051C00011B101291ED10EE0F74A016852F82110F1
:1051D00091F8211041F02001F34B026853F822208E
:1051E00082F821100FE0F04A016852F8211091F87E
:1051F000211021F02001EC4B026853F8222082F8A4
:10520000211000E000BF00BF417931B1012913D066
:10521000022938D003297DD15EE0E34A016852F8C3
:10522000211091F8221021F00101DF4B026853F8A0
:10523000222082F822107BE0DB4A016852F821101C
:1052400091F8221041F00101D74B026853F8222057
:1052500082F822101A46016852F8211091F82210A3
:1052600021F00601026853F8222082F822101A4623
:10527000016852F8211091F82210026853F8222098
:1052800082F8221054E0C84A016852F8211091F8BF
:10529000221041F00101C44B026853F8222082F829
:1052A00022101A46016852F8211091F8221021F0BC
:1052B0000601026853F8222082F822101A4601687B
:1052C00052F8211091F8221041F00201026853F8BF
:1052D000222082F822102BE0B34A016852F82110F4
:1052E00091F8221041F00101AF4B026853F82220DF
:1052F00082F822101A46016852F8211091F8221003
:1053000021F00601026853F8222082F822101A4682
:10531000016800E00BE052F8211091F8221041F0F2
:105320000401026853F8222082F8221000E000BF36
:1053300000BF817911B101291ED10EE09A4A01689E
:1053400052F8211091F8211021F04001964B02688B
:1053500053F8222082F821100FE0934A016852F896
:10536000211091F8211041F040018F4B026853F851
:10537000222082F8211000E000BF00BF8A4A0168A5
:1053800052F8211091F8201021F00101864B02689B
:1053900053F8222082F820101A46016852F8211092
:1053A00091F8201021F00201026853F8222082F8BF
:1053B00020101A46016852F8211091F8201021F0AF
:1053C0000401026853F8222082F820101A4601686E
:1053D00052F8211091F8211041F08001026853F831
:1053E000222082F82110704701466F4850F82100B2
:1053F00090F82300000970476B4A52F8202092F879
:10540000232022F0F002684B53F8203083F8232049
:10541000654A52F8202092F82320F02303EA011372
:105420001A43614B53F8203083F8232070475E4ABB
:1054300052F8202092F8232022F00F025A4B53F802
:10544000203083F82320584A52F8202092F8232055
:1054500001F00F031A43544B53F8203083F82320F4
:10546000704770B504460D46082D7CD2DFE805F084
:1054700010041D2E3F5069844C49085700F01F024C
:10548000012191404A4A430942F8231000BF97E0A6
:10549000454850F8240090F8220020F0800042494E
:1054A00051F8241081F822008AE03F4850F8240087
:1054B00090F8210040F004003B4951F8241081F895
:1054C00021003A49085700F038F979E0364850F899
:1054D000240090F8210040F00200334951F82410D4
:1054E00081F821003149085700F027F968E02E487B
:1054F00050F8240090F8210040F001002A4951F8AA
:10550000241081F821002949085700F016F957E0C6
:10551000254850F8240090F8210040F0040022496A
:1055200051F8241081F821001F4850F8240090F809
:10553000220040F080001C4951F8241081F822001C
:105540003EE0194850F8240090F8210040F0020095
:10555000154951F8241081F82100134850F824000F
:1055600090F8220000E02AE040F080000E4951F857
:10557000241081F8220023E00B4850F8240090F812
:10558000210040F00100084951F8241081F8210061
:10559000054850F8240090F8220040F080000249AD
:1055A00008E0000000800440086E0000106E00005B
:1055B00080E100E051F8241081F8220000E000BFF3
:1055C00000BF70BD624951F8201091F8211041F0E0
:1055D00010015F4A52F8202082F8211070475C4A7F
:1055E00052F8202092F8222022F01802584B53F84B
:1055F000203083F8222031B101290FD002291AD09E
:10560000032932D124E0524A52F8202092F8222075
:105610004F4B53F8203083F8222027E04C4A52F8B1
:10562000202092F8222042F00802494B53F8203003
:1056300083F822201AE0464A52F8202092F82220CD
:1056400042F01002424B53F8203083F822200DE044
:105650003F4A52F8202092F8222042F018023C4B98
:1056600053F8203083F8222000E000BF00BF7047CD
:1056700030B50346002011E011F81040344D55F8C4
:10568000235005F8104031F81040240A304D55F8E9
:10569000235005EB40056C70441CE0B29042EBDBFC
:1056A00030BD11B12B4A42F82010704770B5044646
:1056B000274850F8240090F8215005F0040058B114
:1056C000234850F8240090F8200020F004002049DE
:1056D00051F8241081F8200005F0010058B11C4851
:1056E00050F8240090F8200020F00100184951F8EB
:1056F000241081F8200005F0020058B1144850F839
:10570000240090F8200020F00200114951F82410E4
:1057100081F820000F4850F8240018B10D4951F8C5
:105720002400804770BD10B50020FFF7BFFF10BDFB
:1057300010B50120FFF7BAFF10BD00F01F020121D4
:1057400091404209920002F1E022C2F80011704734
:10575000086E000010000020C148006840F480304E
:10576000BF4908607047F0B500241BE0002515E034
:10577000BC4EB0FBF6F74F430126A640DFF8E8C267
:105780001CF805C006FB0CF6B7FBF6F64FF6FF77E4
:10579000BE4202D222462B4602E06D1C042DE7D306
:1057A00000BF641C082CE1D3AD4E366826F4E046F9
:1057B000AB4F3E603E4636684FF4E04707EA02379B
:1057C0003E43A74F3E603E46366826F00C063E60DC
:1057D0003E4636680C2707EA83073E43A04F3E60EB
:1057E000A04EB0FBF6F74F4301269640DFF878C293
:1057F0001CF803C006FB0CF6B7FBF6F6984F7E606C
:10580000984EB0FBF6F74F4301269640DFF858C29A
:105810001CF803C006FB0CF6B7FBF6F6904FFE60D3
:10582000F0BD8F484068704710B504468F48C06B84
:1058300040F480008D49C86300208949086008460B
:10584000006821794FF4706202EA0121084384491B
:105850000860607928B10846006840F002000860DE
:1058600005E07F48006820F002007D490860A168DB
:105870002068FFF778FF7A48006840F08000784998
:1058800008600846006840F00100086010BDFEB5E1
:1058900006460C460120FEF7DBFF05460F208DF87B
:1058A000040001208DF80500009502946846FFF77A
:1058B000BBFFFEBD70B583B1694C103400EB8005B1
:1058C00054F8354001258D40EDB22C43644D103520
:1058D00000EB800645F8364010E0614C103400EBD8
:1058E000800554F8354001258D40EDB224EA0505C8
:1058F0005B4C103400EB800644F836509BB1584C9A
:10590000103400EB800554F8354001258D404FF4EC
:105910007F4606EA05252543514C103400EB8006EE
:1059200044F8365012E04E4C103400EB800554F829
:10593000354001258D404FF47F4606EA0525AC43EE
:10594000474D103500EB800645F8364070BD30B548
:105950009AB1434B103300EB800453F834300124E8
:105960008C404FF47F0505EA044423433C4C10343B
:1059700000EB800544F8353013E0394B103300EB71
:10598000800453F8343001248C404FF47F0505EA3D
:10599000044423EA0404324B103300EB800543F83F
:1059A000354030BD30B502463048C06B40F4800011
:1059B0002E4BD86351B9482000F01F040123A340A7
:1059C0002B4C450944F8253000BF30BD12B1012AE7
:1059D0002AD11AE031B12248006840F02000204B63
:1059E000186005E01E48006820F020001C4B18607D
:1059F000482000F01F040123A3404409A40004F13F
:105A0000E024C4F8003100BF0FE031B11448006851
:105A100040F40040124B186005E01148006820F483
:105A200000400F4B186000BF00BF00BF00BFCCE7B5
:105A30000E49C96B41F480010C4AD16308B10D498C
:105A40000860704710B50648006820F0400004491F
:105A500008600848006810B106490868804710BD12
:105A60000060034040420F00126E000000800440BE
:105A700080E100E0B000FF1F10B5FE4B596200232B
:105A8000FC4CE361002212E00023FA4CA36200F018
:105A9000800313B10123E36202E00023F54CE362CB
:105AA0000123F44CA3624306180E531CDAB2082AF1
:105AB000EADB0123EF4CE361636210BD30B50024E3
:105AC0001CE004F1B001C8B20021FFF7D5FF0021AE
:105AD0000846FFF7D1FF00211020FFF7CDFF00257A
:105AE00008E0E54901EBC501085D0121FFF7C4FFAE
:105AF000681CC5B2802DF4DB601CC4B2082CE0DB4E
:105B000030BD00B500218D20FFF7B6FF0021142025
:105B1000FFF7B2FF0021AF20FFF7AEFF00BD00B5D9
:105B200000218D20FFF7A8FF00211020FFF7A4FF20
:105B30000021AE20FFF7A0FF00BD30B500240CE02F
:105B4000002506E00020CC4901EBC5010855681C82
:105B5000C5B2802DF6DB601CC4B2082CF0DBFFF769
:105B6000ADFF30BDF0B5144600267F2801DC3F298B
:105B700000DDF0BD0B46CF1701EB5777FF10C7F1E3
:105B80000707FAB2CF1701EB5777FF10A1EBC70752
:105B9000FDB2C5F107070123BB40DEB24CB1B64BE5
:105BA00003EBC0039B5C3343B34F07EBC007BB540D
:105BB00008E0B14B03EBC0039B5CB343AE4F07EB74
:105BC000C007BB5400BFD4E72DE9F04706460F4697
:105BD00090469946DDF820A034460CE03D4606E0AC
:105BE000524629462046FFF7BDFF681CC5B24D4509
:105BF000F6DD601CC4B24445F0DDFFF75FFFBDE891
:105C0000F0872DE9F84F80460F4616461C46BA46E7
:105C10002046E31704EB5373DB1021464FEAE47C84
:105C200004EB5C7C4FEAEC0CA4EBCC0CBCF1000F59
:105C300002D04FF0010C01E04FF0000C634422460B
:105C400004EBD27C4FEA6C0C03FB0CF303F0FF0B6C
:105C5000A6F12000C6B200254EE00C2C07D106EBC1
:105C60004600864901EB8000405D009013E0102C57
:105C700005D1834800EB0610405D00900BE0182C26
:105C800007D106EBC6007F4901EB8000405D009024
:105C900001E0BDE8F88F4FF0000927E0009800F020
:105CA000800028B1394640460A9AFFF75BFF09E0B9
:105CB0000A9808B9012000E0002002463946404613
:105CC000FFF750FF00984006000E0090781CC7B206
:105CD000A7EB0A00A04205D1574608F1010000F0E9
:105CE000FF0806E009F1010000F0FF09B9F1080F13
